:100000000A308A008F2A00000C29E530E43C2E17C4
:100010002E050000D332EC32E331E9376E10ED37B4
:10002000E4370001611DC13AF437203E2031BA2681
:10003000613700016D1DC13AF4370001D03A651DEA
:100040004F3865378A060001D03A651D4336EF39CF
:100050006500561D4F270001D4326D386539613A6D
:1000600075396110A821291DA012AE186610A821AB
:100070002910203E20102028F532723A611DA0126E
:10008000751020107C102010D6326E3A693661321D
:100090006F393A104F278A060000561D4F2700017E
:1000A000D4326D386539613A75396110A821291D3E
:1000B000A012AE186610A82129145039E531E13A92
:1000C000E3346F37293ED03A6539F4303A10A53A17
:1000D0007C2B6537F434EC30E437721DA0274E05D5
:1000E0000D00561D4F234600D4326D386539613AF4
:1000F00075396110A821291DA012AE186610A8211B
:10010000291020107C102010D03A6539F4303A10B4
:10011000A53A2010203E2010202B6537F434EC3017
:10012000E437721DA02746238A060001541DCE2005
:100130000001C422D3214F27C521D420C4278A0619
:1001400000006D1DCD30EE3A0001D4326D386539B6
:10015000613A75396110A821291DA012AE186610E8
:10016000A821291020107C102010D03A6539F430D5
:100170003A10A53A2010203E2010202B6537F43489
:10018000EC30E437721DA02746238A060001561D75
:100190004F234600541DCE200001C422D3214F27F7
:1001A000C521D420C4278A0600016D1DCD30EE3A4A
:1001B0000001D4326D386539613A75396110A82172
:1001C000291DA012AE186610A8212910203E20106B
:1001D0002028F532723A611DA012751020107C1093
:1001E0002010D6326E3A693661326F393A104F2795
:1001F0008A060001561D4F270001541DCE20000124
:10020000C422D3214F27C521D420C4278A06000049
:100210004D3084008313000803191C290130F800B5
:10022000F701F70B1129F80B10294A30F700F70BEB
:1002300017291A29800B0E290800540EF039F700EF
:100240000F300805770488000000081427290810DB
:1002500008000808F700080E0F39F8000800831698
:10026000081088100811831288100F3083160805B3
:10027000F0388800831208150000081400002921B6
:100280007808D4000810000008140000292178081C
:10029000D30008100F308316080588008312540E0F
:1002A000F700F030F70577085304F8007808D3001A
:1002B000D31B3529511C88105118881400000811CF
:1002C00000000810520ED3000F30D3055308D4009D
:1002D0001D2152080F39D300D4001D2108002830F9
:1002E000C0000C30C1000130C2000630C30008104D
:1002F000881008110F308316080588000810881030
:1003000008110F308312CD0008210130BF003F08D3
:10031000033C031C93290330D4001D210530CD007C
:100320000821BF0A87290230D4001D210530CD00E5
:100330000821BF013F08033C031CAA2940303F07A6
:10034000840083130008C400D1014408D2002F2187
:10035000BF0A9A298A150A12BE2A4E0BB029B32960
:100360004030CF00B429CF0101304D02CF074F08F4
:100370008038D000D1015008D2002F2108004C084D
:10038000073A0319CD290B3A0319D229063A031962
:10039000DA29023A0319E029E5290130CD00CE001F
:1003A000AD21EA29D1010130D2002F210230CD0048
:1003B0000821EA290130CD000230CE00AD21EA2922
:1003C000D1011030D2002F21EA290130D1004C0890
:1003D000D2002F2108000B08BF008B1383160317D0
:1003E0008C170C140000000083120313BF1B8B1723
:1003F00003170C087F3903193F2A0313BF000317A3
:100400000D080313C00003170F080313C1003F08B2
:10041000CC00BF21400803178D00031341080317C8
:100420008F0003130B08C2008B13831603178C175E
:100430000C140000000083120313C21B8B17031758
:100440000C0D0E0D7F3903193F2A0313BF0003174C
:100450000D080313C00003170F080313C1003F0862
:10046000CC00BF21400803178D0003134108031778
:100470008F008D0A03198F0A0313EB290317031347
:1004800008000130C0004030BF006730F700F70BB4
:10049000472A4A2ABF0B512AC00B512AA001F80152
:1004A0005B2A8C1E452A1808A0001A08F800A01C18
:1004B0005B2A181218160800CD01CC014C08073C25
:1004C000031C762A051C622A0930F700F70B662AFE
:1004D000692A051C702A03104D0D0138CD00722ABF
:1004E0000310CD0D0518722ACC0A5E2A4D08F800BB
:1004F00008005308F80152020318812A5208F70035
:100500008D2AF7010830D400D20DF70D5308770279
:100510000318F700F80DD40B842A08002C08840077
:1005200083132D18831752088000840A8001AC0AB7
:100530000319AD0A080020304D1E3030CE004C08A3
:10054000F700CC1FAB2AF709F70A7708CC002D304B
:10055000CE00CD174D144C08D2006430D300792260
:100560007708CC0030307807CF004C08D2000A3032
:10057000D300792230307707D10030307807D000AF
:100580004E08F70030304F020319CA2ACD14CD1B94
:100590004D15DE2A4E08CF002030CE0030305002FC
:1005A0000319D62A4D14CD1BCD14DE2A031D4D147C
:1005B000031DDE2A4F08D0002030CF004D19E52A58
:1005C000CD18E82A4D18EB2AEE2A4E08D2008E22CA
:1005D0004F08D2008E225008D2008E225108D2003D
:1005E0008E2208005D080319622BE50061080319DB
:1005F000622BE5070318032B7F30E502031C622BF7
:100600000319622B072B8130E5070318622B65085D
:10061000F700F801F901FA015E08E900E9175F083F
:10062000E8006008E7001830E500E601671C302BA1
:100630006408FA07031C222BF90A031D222BF80A6F
:100640000319E6176308F907031C292BF80A031995
:10065000E6176208DF00DF175F08F8070318E617E0
:10066000E60DF80CF90CFA0CE90CE80CE70C031099
:10067000E50B152B0130F7070318622BF81B472BEE
:10068000E90DFA0DF90DF80DF7030319622BE91FB7
:10069000582BFA0A031D582BF90A031D582BF80A88
:1006A000031D582BF80CF90CFA0CF70A0319622BEE
:1006B0005E08E6006208E606E61F602BF817662B68
:1006C000F813662BF701F801F901FA0108008E30E2
:1006D000F7006208F8006108F900FA01F808031D44
:1006E0007B2B7908F800F9010830F702F808031DA0
:1006F0007B2BF701832B0310F81B822BF90DF80DD0
:10070000F7037B2BF813080061080319492CED004F
:1007100065080319492CED02031C932B7F30ED076C
:100720000318492C992B8130ED02031C492C031925
:10073000492C6D08F700F801F901FA01EC01620893
:10074000EB00EB176308EA006408E9001930ED00DC
:100750006808E9020318BC2B0130EA020318BC2B1D
:10076000EB020318BC2BEC020318BC2BEC0AEB0ABF
:10077000EA0A6808E907EE2B6708EA020318D72B94
:100780000130EB020318D72BEC020318D72BEC0A2D
:10079000EB0A6708EA076808E907031CEE2BEA0A78
:1007A000031DEE2BEB0A031DEE2BEC0AEE2B660865
:1007B0008038EB020318ED2B0130EC020318ED2B0F
:1007C000EC0A66088038EB076708EA07031CCB2BA6
:1007D000EB0A031DCB2BEC0ACB2B7A14ED0BF12B80
:1007E000FC2B0310E90DEA0DEB0DEC0D0310FA0DD7
:1007F000F90DF80DEE0DA82B6E1C042C0310F80C4F
:10080000F90CFA0CEE0C072CF7030319492CEE1B1C
:10081000302C0310E90DEA0DEB0DEC0D6808E90230
:1008200003181C2C0130EA0203181C2CEB020318DD
:100830001C2CEC02031C3F2C6708EA020318272C2F
:100840000130EB020318272CEC02031C3F2C660836
:100850008038EB020318302C0130EC02031C3F2CD3
:10086000FA0A031D3F2CF90A031D3F2CF80A031D49
:100870003F2CF70A0319492CF80CF90CFA0C620802
:10088000ED006608ED06ED1F472CF8174D2CF81308
:100890004D2CF701F801F901FA01080080308318A6
:1008A000E606EB01EC016208EA006608EA06610868
:1008B00003193E2DE900F70065080319472DE902E9
:1008C0000319E32C031CA12C6608EF00EF1767083F
:1008D000EE006808ED00EC010310EF0CEE0CED0CDF
:1008E000EC0CE90B6B2CEA1F782C6B145B2D6B1056
:1008F00069106B16643084008313702D6B12EA1B31
:100900008B2C691C962CEF0CEE0CED0CEC0CF70A02
:100910000319562D962CEF1B992C0310EC0DED0DA1
:10092000EE0DEF0DF7030319562D8B2C6B17032DCE
:100930006B136208EA00EA1F9F2CEF174F2DEF138D
:100940004F2D6508E900F7006108E9026208EF0031
:10095000EF176308EE006408ED00EC010310EF0CE4
:10096000EE0CED0CEC0CE90BAD2CEA1FBA2CEB14E1
:100970005B2DEB106910EB16683084008313702D2B
:10098000EB12EA1BCD2C691CD82CEF0CEE0CED0CF5
:10099000EC0CF70A0319562DD82CEF1BDB2C031097
:1009A000EC0DED0DEE0DEF0DF7030319562DCD2CCB
:1009B000EB17032DEB136608EA00EA1FE12CEF1793
:1009C0004F2DEF134F2D6608EF00EF176708EE006D
:1009D0006808ED00EA1FF02CEF136B155B2D6B110F
:1009E000EC016910643084008313702DEA1B192D0B
:1009F0006208EA00691C032DEF0CEE0CED0CEC0C08
:100A0000F70A0319562DEC1F142DED0A031D142DA2
:100A1000EE0A031D142DEF0A031D142DEF0CEE0C2E
:100A2000ED0CF70A0319562D6B1B982CEB1BDA2CD7
:100A3000382D8030EF06EF1F212D5B2D6608EA0070
:100A40002E2D6208EA00EF08031D2E2DEE08031D6F
:100A50002E2DED08031D2E2DF7014F2DEF1B382DE8
:100A60000310EC0DED0DEE0DEF0DF70B2E2D562DA9
:100A7000EA1F3C2DEF174F2DEF134F2D6508F700A0
:100A80006608EF006708EE006808ED004F2D61086A
:100A9000F7006208EF006308EE006408ED006F08DD
:100AA000F8006E08F9006D08FA008E2DF701F801C4
:100AB000F901FA018E2DEC01ED09EE09EF09EC09BF
:100AC000EC0A031D692DED0A031D692DEE0A0319B9
:100AD000EF0A6B18772CEB18B92C6B19EF2C1E2D25
:100AE0000008ED07031C7A2DEE0A031D7A2DEF0A8C
:100AF0000319691484030008EE07031C822DEF0A12
:100B00000319691484030008801F803AEF07031853
:100B100069146B1A7E2CEB1AC02CF62C0800D50138
:100B2000D401D3017F30D200D901D801D701D60139
:100B30005A14DA105A11DC014E084F04031DA52D7A
:100B4000F701F801F901FA01B02E5C08DC0A4E0742
:100B5000840083134F1883170008DB00DB08031998
:100B60006E2E5A1CC52D5B08203C0319C52D5A104A
:100B70005B082B3C031DBF2DDA10642EC52D5B08CE
:100B80002D3C031DC52DDA14642E5A18CF2D5B0899
:100B90002E3C031DCF2D5A19CF2D5A15642E5A18ED
:100BA000622E5B082F3C0318622E5B08393C031C45
:100BB000622E3030DB025A1D2C2E5508E0005408FE
:100BC000DF005308DE005208DD00E401E3012030BD
:100BD000E2008230E100F2227A08D5007908D400E0
:100BE0007808D3007708D200E2015B08E1006723B0
:100BF0007A08E0007908DF007808DE007708DD0079
:100C00007A08E4007908E3007808E2007708E10058
:100C10005508E8005408E7005308E6005208E500CC
:100C2000842383105908E4005808E3005708E200C1
:100C30005608E1007A08E8007908E7007808E6003D
:100C40007708E5004E247A08D9007908D80078089A
:100C5000D7007708D600612EE001DF012030DE00EA
:100C60008230DD005908E4005808E3005708E2002C
:100C70005608E100F2227A08E0007908DF007808DF
:100C8000DE007708DD00E2015B08E10067238310E6
:100C90006008E4005F08E3005E08E2005D08E10030
:100CA0007A08E8007908E7007808E6007708E500A8
:100CB0004E247A08D9007908D8007808D700770838
:100CC000D600642E5A1C6E2E5C08DC0A4E07840087
:100CD00083134F1883170008DB00AE2DDA1C872E14
:100CE000E001DF018030DE007F30DD005908E400E4
:100CF0005808E3005708E2005608E100F2227A089B
:100D0000D9007908D8007808D7007708D6005008AD
:100D100051040319A82EDC0803199D2EDC0350088A
:100D200084008313511883175C084E078000840ADF
:100D30004F0880000318800AA82E500884008313EF
:100D400051188317840A4F08800084034E088000DE
:100D50005608F7005708F8005808F9005908FA0033
:100D60000800CB01831605100510831205101930F9
:100D7000CD00082183160510831205140930F700F1
:100D8000F70BC02EC32E8316051483120518C62E2A
:100D9000051CC82E0518CA2E5C227808A7005C2204
:100DA0007808A8005C227808A9005C227808AA00CC
:100DB0005C227808AB002808270729072A07CB0000
:100DC0002B084B02031D402FAD014330AC00270818
:100DD000CC001130CD009B222E30D2008E2228086C
:100DE000CC001830CD009B224008FA003F08CC0010
:100DF0004008CD00CF014330CE00D101D0018F2576
:100E00004C08840083134D18831777088000840AE8
:100E100078088000840A79088000840A7A088000B3
:100E2000AD014330AC002908CC001130CD009B222D
:100E30002E30D2008E222A08CC001830CD009B2202
:100E40004208FA004108CC004208CD00CF014330EF
:100E5000CE00D101D0018F254C08840083134D189A
:100E6000831777088000840A78088000840A79084C
:100E70008000840A7A0880000130F800422F422F57
:100E80000030F80008004C08B63CCC00FA014D08D0
:100E9000D000CD170310CD0CCE0CCF0CFA0CF90CF2
:100EA000F80CF70CCC0B4A2FD01F612FF709F8096B
:100EB000F909FA09F70A0319F80A0319F90A0319D3
:100EC000FA0A08008318672F543084008313F7014F
:100ED000F801F901FA01D401D501D601D70153086F
:100EE0005204510450040319A52F2030D8000310D8
:100EF000CC0DCD0DCE0DCF0DD40DD50DD60DD70DFE
:100F000053085702031D8E2F52085602031D8E2FC1
:100F100051085502031D8E2F50085402031C9F2FA9
:100F20005008D4025108031C510FD5025208031C6B
:100F3000520FD6025308031C530FD7020314F70DA8
:100F4000F80DF90DFA0DD80B772F54088000840A9C
:100F500055088000840A56088000840A57088000DB
:100F600008004008C7004408C706C71FBC2F03116C
:100F70000310C01B0314EF2F4008C7004308C8002C
:100F80003F08C8020319CA2FC71FEF2F0308013AF1
:100F90008300EF2F4408C8004008C8020319D62F69
:100FA000C71FEF2F0308013A8300EF2F4508C80041
:100FB0004108C8020319E22FC71FEF2F0308013AA7
:100FC0008300EF2F4608C8004208C8020319EE2F1D
:100FD000C71FEF2F0308013A8300EF2F031008000B
:101000000408C4004308C600031921284208E00070
:101010004108DF004008DE003F08DD00E401E30195
:101020002030E2008230E1008A11F2228A157A082B
:10103000C2007908C1007808C0007708BF00C60B5D
:1010400006284208CF004108CE004008CD003F08E6
:10105000CC008A1143278A157A08C2007908C1009A
:101060007808C0007708BF00C21F4328C403C41615
:10107000BF09C009C109C209BF0A0319C00A03197F
:10108000C10A0319C20A3B30CB009A30CA00CA30E9
:10109000C900C8010A30C60043080319C40A8314F2
:1010A0003F30840083134208CF004108CE0040083F
:1010B000CD003F08CC004B08D3004A08D2004908B5
:1010C000D1004808D0008A1162278A157808F708ED
:1010D000031D7D28430A460203197D28440803198D
:1010E0007F280F394602031977280318B728C41B35
:1010F000B728441B7F282030B1282030C405C41EE7
:101100008F28C4124308031DC4037708C4002D3080
:10111000CC008A11BF218A154408F700C401430896
:101120004602031D9F287708C4002E30CC008A1188
:10113000BF218A154408F7002030C4050030303044
:10114000C41EB128C4124308031DC4037708C40099
:101150002D30CC008A11BF218A154408F700C40144
:101160003030F7077708CC008A11BF218A15831029
:101170004B08CF004A08CE004908CD004808CC00F3
:10118000D301D201D1010A30D0008A1162278A1519
:101190007A08CB007908CA007808C9007708C80027
:1011A000C60B4F2808000B08C0008B1383160317CB
:1011B0008C170C140000000083120313C01B8B1744
:1011C00003180B2903170C087F390313C0000317FA
:1011D0000D080313C10003170F080313C2004008D2
:1011E0000C1EF0289900410803178D0003134208D4
:1011F00003178F0003130B08C3008B138316031709
:101200008C170C140000000083120313C31B8B17F0
:10121000BF0B0B292B2903170C0D0E0D7F39031360
:10122000C00003170D080313C10003170F080313B1
:10123000C20040080C1E1A299900410803178D00AE
:101240000313420803178F008D0A03198F0A031036
:101250000313BF0BD32808000408C4004308C600CA
:1012600003194D294208E0004108DF004008DE0074
:101270003F08DD00E401E3012030E2008230E100BC
:101280008A11F2228A157A08C2007908C10078080A
:10129000C0007708BF00C60B32294208CF004108C2
:1012A000CE004008CD003F08CC008A1143278A15A4
:1012B0007A08C2007908C1007808C0007708BF002A
:1012C000C21F6F29C403C416BF09C009C109C209DE
:1012D000BF0A0319C00A0319C10A0319C20A3B3025
:1012E000CB009A30CA00CA30C900C8010A30C60013
:1012F00043080319C40A83143F308400831342084F
:10130000CF004108CE004008CD003F08CC004B087C
:10131000D3004A08D2004908D1004808D0008A11F9
:1013200062278A157808F708031DA929430A46028F
:101330000319A92944080319AB290F3946020319D7
:10134000A3290318DF29C41BDF29441BAB29203044
:10135000DA292030C405C41EBA29C4124308031D6B
:10136000C4037708C4002D300C1EB429990044082A
:10137000F700C40143084602031DC9297708C400C9
:101380002E300C1EC12999004408F7002030C405F6
:1013900000303030C41EDA29C4124308031DC403D0
:1013A0007708C4002D300C1ED32999004408F7009B
:1013B000C4013030F70777080C1EDC299900831030
:1013C0004B08CF004A08CE004908CD004808CC00A1
:1013D000D301D201D1010A30D0008A1162278A15C7
:1013E0007A08CB007908CA007808C9007708C800D5
:1013F000C60B7B29080078083F08D2006430D30070
:101400008A1179228A157708BF0078083030031DC9
:10141000102AC01C182AC019182A401A2030132A72
:10142000C01140124014F80778080C1E152A9900C4
:101430003F08D2000A30D3008A1179228A15770832
:10144000BF0078083030031D2B2AC019302A401CF9
:10145000302A401A2030F80778080C1E2D2A9900EF
:101460003030BF073F080C1E332A990008000B08D4
:10147000BF008B13831603178C170C140000000099
:1014800083120313BF1B8B1703170C087F39031933
:101490008D2A0313BF0003170D080313C0000317A1
:1014A0000F080313C1003F080C1E542A990040087E
:1014B00003178D000313410803178F0003130B0854
:1014C000C2008B13831603178C170C140000000046
:1014D00083120313C21B8B1703170C0D0E0D7F39DC
:1014E00003198D2A0313BF0003170D080313C0004F
:1014F00003170F080313C1003F080C1E7D2A990033
:10150000400803178D000313410803178F008D0A4D
:1015100003198F0A0313372A03170313080003085C
:101520001F398300613083168F000F088312A001DA
:10153000831603178711193003139900A6309800FA
:10154000903083129800AD01AC01FF30AE008316DD
:1015500003170908C039890003131F129F120030B6
:1015600003178800831287018801890183130313FD
:10157000A101A201AF01B0018A116F298A150430BF
:1015800003178D0000308F008A110313EB218A1599
:101590000830BF00FA30CD008A1108218A15BF0B30
:1015A000CA2A0C30CC008A11BF218A150C30CC001D
:1015B0008A11BF218A150A300C1EDC2A99000D30D1
:1015C0000C1EE02A9900AE102E08831687008312A5
:1015D00087102E112E088316870083120711AF0182
:1015E0002E102E0883168700831207100130CD00BD
:1015F000CE008A11AD218A150A3003178D00003004
:101600008F008A110313EB218A150130CD000230BF
:10161000CE008A11AD218A15123003178D000030DB
:101620008F008A110313EB218A158A1141228A1532
:101630007808BD003D08613C0319212B3D08623C40
:1016400003192C2B0230BF00FA30CD008A1108217B
:101650008A15BF0B242BD62A3D08613A0319342B77
:10166000033A03194C2D6D2FC0013130BF00C20168
:101670003930C1008A11B1268A157808B000831666
:1016800085148312AF018518AF0A0C30CC008A1183
:10169000BF218A150130CD00CE008A11AD218A15F7
:1016A0001A3003178D0000308F008A110313EB21CD
:1016B0008A15AF08031D6D2B0830CD000130CE0018
:1016C0008A11AD218A151E3003178D0000308F005E
:1016D0008A110313EB218A157D2B0830CD000130D0
:1016E000CE008A11AD218A15243003178D000030F9
:1016F0008F008A110313EB218A15300B1D2D8314E3
:101700003408E4003308E3003208E2003108E10065
:10171000E801E701E6018430E5008A114E248A15CC
:101720007A08C2007908C1007808C0007708BF00B5
:101730007A08E4007908E3007808E2007708E1001D
:101740006630E800E700E6007F30E5008A11842378
:101750008A157A08B8007908B7007808B6007708C3
:10176000B5000130CD000230CE008A11AD218A15BE
:101770005430CC008A11BF218A153A30CC008A112E
:10178000BF218A152030CC008A11BF218A158930EB
:1017900084003808C2003708C1003608C000350888
:1017A000BF000130C30000202030CC008A11BF21CF
:1017B0008A15DF30CC008A11BF218A154330CC0056
:1017C0008A11BF218A15C201C1017030C000823068
:1017D000BF003808C6003708C5003608C400350801
:1017E000C3008A11B1278A150318F82B031D622C38
:1017F0003808C2003708C1003608C0003508BF00ED
:10180000C601C5017030C4008330C3008A11B127FE
:101810008A1503180D2C031D622C2F0B622CAE10A1
:101820002E0883168700831287142E112E08831624
:101830008700831207110C30CD000230CE008A11D0
:10184000AD218A15293003178D0000308F008A11D1
:101850000313EB218A152C3003178D0000308F0005
:10186000031011300313BF00D320893084003808DF
:10187000C2003708C1003608C0003508BF0001307B
:10188000C3002C21363003178D0000308F00031465
:1018900012300313BF00D3202F08BF001B30C0003D
:1018A000FB21403003178D0000308F0003141730E8
:1018B0000313BF00D3202E102E0883168700831237
:1018C00007101C2DC201C1017030C0008330BF0061
:1018D0003808C6003708C5003608C4003508C300FC
:1018E0008A11B1278A15031CCA2C2F0BCA2CAE10E3
:1018F0002E0883168700831287142E112E08831654
:101900008700831207110C30CD000230CE008A11FF
:10191000AD218A154D3003178D0000308F008A11DC
:101920000313EB218A15503003178D0000308F0010
:10193000031011300313BF00D3208930840038080E
:10194000C2003708C1003608C0003508BF000130AA
:10195000C3002C215A3003178D0000308F00031470
:1019600019300313BF00D3202F08BF001B30C00065
:10197000FB21683003178D0000308F0003101130F9
:101980000313BF00D3202E102E0883168700831266
:1019900007141C2DAE102E088316870083128710A3
:1019A0002E112E0883168700831207110C30CD00EC
:1019B0000230CE008A11AD218A15713003178D00D7
:1019C00000308F008A110313EB218A15743003173E
:1019D0008D0000308F00031011300313BF00D3209F
:1019E000893084003808C2003708C1003608C000BA
:1019F0003508BF000130C3002C217E3003178D0055
:101A000000308F00031413300313BF00D3202F08BE
:101A1000BF001B30C000FB21893003178D00003050
:101A20008F00031018300313BF00D3202E102E0890
:101A30008316870083120710342D0130CD00023049
:101A4000CE008A11AD218A15963003178D00003023
:101A50008F008A110313EB218A15993003178D002B
:101A600000308F0003133722AF018A1141228A15FB
:101A70007808BE003E08733C0319482D0630BF00AD
:101A8000FA30CD008A1108218A15BF0B402D342B66
:101A90003E08733C03196D2FC0013130BF00C201F5
:101AA0003930C1008A11B1268A157808B000831632
:101AB00085148312AF018518AF0A0C30CC008A114F
:101AC000BF218A150130CD00CE008A11AD218A15C3
:101AD000A13003178D0000308F008A110313EB2112
:101AE0008A15300B2A2E83143408E4003308E300EF
:101AF0003208E2003108E100E801E701E601843044
:101B0000E5008A114E248A157A08C2007908C100BE
:101B10007808C0007708BF007A08E4007908E3007D
:101B20007808E2007708E1006630E800E700E600A8
:101B30007F30E5008A1184238A157A08B800790875
:101B4000B7007808B6007708B5000130CD00023044
:101B5000CE008A11AD218A155430CC008A11BF21E4
:101B60008A153A30CC008A11BF218A152030CC006A
:101B70008A11BF218A15893084003808C2003708CD
:101B8000C1003608C0003508BF000130C300002086
:101B90002030CC008A11BF218A15DF30CC008A1199
:101BA000BF218A154330CC008A11BF218A15A53088
:101BB00003178D0000308F00031011300313BF0096
:101BC000D320893084003808C2003708C1003608A5
:101BD000C0003508BF000130C3002C21AF3003170F
:101BE0008D0000308F00031413300313BF00D32087
:101BF0002F08BF001B30C000FB21BA3003178D0037
:101C000000308F00031018300313BF00D320AE1034
:101C10002E0883168700831287102E112E08831634
:101C20008700831207110C30CD000230CE008A11DC
:101C3000AD218A15C73003178D0000308F008A113F
:101C40000313EB218A152E102E08831687008312AA
:101C50000710412E0130CD000230CE008A11AD2197
:101C60008A15CA3003178D0000308F008A110313C4
:101C7000EB218A15CD3003178D0000308F00031340
:101C800037228A1141228A157808BE003E08633C3B
:101C900003194D2E3E08733C0319582E0630BF0021
:101CA000FA30CD008A1108218A15BF0B502E4C2D19
:101CB0003E08733C03196D2FC0013130BF00C201D3
:101CC0003930C1008A11B1268A157808B000831610
:101CD00085148312AF018518AF0A0C30CC008A112D
:101CE000BF218A150130CD00CE008A11AD218A15A1
:101CF000D53003178D0000308F008A110313EB21BC
:101D00008A15300B3A2F83143408E4003308E300BB
:101D10003208E2003108E100E801E701E601843021
:101D2000E5008A114E248A157A08C2007908C1009C
:101D30007808C0007708BF007A08E4007908E3005B
:101D40007808E2007708E1006630E800E700E60086
:101D50007F30E5008A1184238A157A08B800790853
:101D6000B7007808B6007708B5000130CD00023022
:101D7000CE008A11AD218A155430CC008A11BF21C2
:101D80008A153A30CC008A11BF218A152030CC0048
:101D90008A11BF218A15893084003808C2003708AB
:101DA000C1003608C0003508BF000130C300002064
:101DB0002030CC008A11BF218A15DF30CC008A1177
:101DC000BF218A154330CC008A11BF218A15D93032
:101DD00003178D0000308F00031011300313BF0074
:101DE000D320893084003808C2003708C100360883
:101DF000C0003508BF000130C3002C21E3300317B9
:101E00008D0000308F00031412300313BF00D32065
:101E10002F08BF001B30C000FB21ED3003178D00E1
:101E200000308F00031417300313BF00D320AE100F
:101E30002E0883168700831287142E112E0883160E
:101E40008700831207112E102E0883168700831235
:101E500007140C30CD000230CE008A11AD218A1556
:101E6000FA3003178D0000308F008A110313EB2125
:101E70008A15512F0130CD000230CE008A11AD21DC
:101E80008A15FD3003178D0000308F008A1103136F
:101E9000EB218A15003003178D0001308F000313EA
:101EA00037228A1141228A157808BE003E08633C19
:101EB00003195D2F3E08733C0319682F0630BF00DD
:101EC000FA30CD008A1108218A15BF0B602F5C2ED5
:0E1ED0003E08733C03196D2F4C2DD12A630080
:04400E00A42CFF3FA0
:00000001FF
;PIC16F887
;CRC=05B7  CREATED="03-Dec-23 19:03"
