:100000000A308A008F2A00000C29E530E43C2E17C4
:100010002E050000D332EC32E331E9376E10ED37B4
:10002000E4370001611DC13AF437203E2031BA2681
:10003000613700016D1DC13AF4370001D03A651DEA
:1000400043366F050D00D03A651D4F386500561DCB
:100050004F270001D4326D386539613A7539611026
:10006000A821291DA012AE186610A5312010203E2F
:1000700020102028F532723A611DA0127510201050
:100080007C102010D6326E3A693661326F393A10E0
:100090004F278A060000561D4F270001D4326D38C5
:1000A0006539613A75396110A821291DA012AE1871
:1000B0006610A5312828F232E330F531E937EE1425
:1000C0007C28F532723A611DA012753ED6326E3A26
:1000D000693661326F393A104F278A060001561D82
:1000E0004F234600D4326D386539613A7539611055
:1000F000A821291DA012AE186610A5312010203E9F
:1001000020102028F532723A611DA01275102010BF
:100110007C102010D6326E3A693661326F393A104F
:100120004F2346050D00541DCE200001C422D321CB
:100130004F27C521D420C4278A0600006D1DCD306D
:10014000EE3A0001D4326D386539613A7539611083
:10015000A821291DA012AE186610A5312010203E3E
:1001600020102028F532723A611DA012751020105F
:100170007C102010D6326E3A693661326F393A10EF
:100180004F2346050D00561D4F234600541DCE201B
:100190000001C422D3214F27C521D420C4278A06B9
:1001A00000016D1DCD30EE3A0001D4326D38653955
:1001B000613A75396110A821291DA012AE18661088
:1001C000A5312010203E20102028F532723A611D02
:1001D000A012751020107C102010D6326E3A6936AD
:1001E00061326F393A104F278A060001561D4F279A
:1001F0000001541DCE200001C422D3214F27C52168
:10020000D420C4278A0600004D30840083130008E0
:10021000031918290130F800F701F70B0D29F80B25
:100220000C294A30F700F70B13291629800B0A29ED
:100230000800540EF039F7000F30080577048800E5
:10024000000008142329081008000808F700080E09
:100250000F39F8000800831608108810081183125F
:1002600088100F3083160805F038880083120815AF
:1002700000000814000025217808D40008100000B0
:100280000814000025217808D30008100F308316C9
:10029000080588008312540EF700F030F705770840
:1002A0005304F8007808D300D31B3129511C88105F
:1002B000511888140000081100000810520ED300D5
:1002C0000F30D3055308D400192152080F39D30039
:1002D000D400192108002830C0000C30C1000130C2
:1002E000C2000630C3000810881008110F308316B2
:1002F000080588000810881008110F308312CD00FF
:1003000004210130BF003F08033C031C8F29033048
:10031000D40019210530CD000421BF0A8329023001
:10032000D40019210530CD000421BF013F08033C52
:10033000031CA62940303F07840083130008C40033
:10034000D1014408D2002B21BF0A96298A150A122E
:10035000BE2A4E0BAC29AF294030CF00B029CF01C7
:1003600001304D02CF074F088038D000D10150082E
:10037000D2002B2108004C08073A0319C9290B3A6F
:100380000319CE29063A0319D629023A0319DC29A2
:10039000E1290130CD00CE00A921E629D1010130AB
:1003A000D2002B210230CD000421E6290130CD00FE
:1003B0000230CE00A921E629D1011030D2002B2134
:1003C000E6290130D1004C08D2002B2108000B088F
:1003D000BF008B13831603178C170C14000000004A
:1003E00083120313BF1B8B1703170C087F390319E4
:1003F0003B2A0313BF0003170D080313C0000317A4
:100400000F080313C1003F08CC00BB2140080317AD
:100410008D000313410803178F0003130B08C2005C
:100420008B13831603178C170C1400000000831223
:100430000313C21B8B1703170C0D0E0D7F39031905
:100440003B2A0313BF0003170D080313C000031753
:100450000F080313C1003F08CC00BB21400803175D
:100460008D000313410803178F008D0A03198F0AAB
:100470000313E7290317031308000130C0004030BD
:10048000BF006730F700F70B432A462ABF0B4D2AFF
:10049000C00B4D2AA001F801572A8C1E412A1808CA
:1004A000A0001A08F800A01C572A181218160800F5
:1004B000CD01CC014C08073C031C722A051C5E2AA6
:1004C0000930F700F70B622A652A051C6C2A031015
:1004D0004D0D0138CD006E2A0310CD0D05186E2A82
:1004E000CC0A5A2A4D08F80008005308F8015202B5
:1004F00003187D2A5208F700892AF7010830D40032
:10050000D20DF70D530877020318F700F80DD40B3E
:10051000802A08002C08840083132D1883175208A2
:100520008000840A8001AC0A0319AD0A080020305B
:100530004D1E3030CE004C08F700CC1FA72AF7091B
:10054000F70A7708CC002D30CE00CD174D144C089B
:10055000D2006430D30075227708CC0030307807A1
:10056000CF004C08D2000A30D30075223030770714
:10057000D10030307807D0004E08F70030304F02FD
:100580000319C62ACD14CD1B4D15DA2A4E08CF000B
:100590002030CE00303050020319D22A4D14CD1B2A
:1005A000CD14DA2A031D4D14031DDA2A4F08D0009A
:1005B0002030CF004D19E12ACD18E42A4D18E72A42
:1005C000EA2A4E08D2008A224F08D2008A22500816
:1005D000D2008A225108D2008A2208005D0803193D
:1005E0005E2BE500610803195E2BE5070318FF2A5F
:1005F0007F30E502031C5E2B03195E2B032B813039
:10060000E50703185E2B6508F700F801F901FA0108
:100610005E08E900E9175F08E8006008E7001830A5
:10062000E500E601671C2C2B6408FA07031C1E2B4F
:10063000F90A031D1E2BF80A0319E6176308F907C8
:10064000031C252BF80A0319E6176208DF00DF17E1
:100650005F08F8070318E617E60DF80CF90CFA0C1A
:10066000E90CE80CE70C0310E50B112B0130F70740
:1006700003185E2BF81B432BE90DFA0DF90DF80D4D
:10068000F70303195E2BE91F542BFA0A031D542BA1
:10069000F90A031D542BF80A031D542BF80CF90C0E
:1006A000FA0CF70A03195E2B5E08E6006208E606FC
:1006B000E61F5C2BF817622BF813622BF701F80189
:1006C000F901FA0108008E30F7006208F8006108AD
:1006D000F900FA01F808031D772B7908F800F901F1
:1006E0000830F702F808031D772BF7017F2B031062
:1006F000F81B7E2BF90DF80DF703772BF813080084
:1007000080308318E606EB01EC016208EA00660817
:10071000EA0661080319702CE900F700650803195F
:10072000792CE9020319152C031CD32B6608EF0062
:10073000EF176708EE006808ED00EC010310EF0CFE
:10074000EE0CED0CEC0CE90B9D2BEA1FAA2B6B14A5
:100750008D2C6B1069106B16643084008313A22CEF
:100760006B12EA1BBD2B691CC82BEF0CEE0CED0CB9
:10077000EC0CF70A0319882CC82BEF1BCB2B0310AA
:10078000EC0DED0DEE0DEF0DF7030319882CBD2BCD
:100790006B17352C6B136208EA00EA1FD12BEF1799
:1007A000812CEF13812C6508E900F7006108E9024C
:1007B0006208EF00EF176308EE006408ED00EC013B
:1007C0000310EF0CEE0CED0CEC0CE90BDF2BEA1F29
:1007D000EC2BEB148D2CEB106910EB1668308400B9
:1007E0008313A22CEB12EA1BFF2B691C0A2CEF0CC3
:1007F000EE0CED0CEC0CF70A0319882C0A2CEF1BFD
:100800000D2C0310EC0DED0DEE0DEF0DF70303199C
:10081000882CFF2BEB17352CEB136608EA00EA1F38
:10082000132CEF17812CEF13812C6608EF00EF17C4
:100830006708EE006808ED00EA1F222CEF136B1525
:100840008D2C6B11EC016910643084008313A22C91
:10085000EA1B4B2C6208EA00691C352CEF0CEE0CED
:10086000ED0CEC0CF70A0319882CEC1F462CED0A52
:10087000031D462CEE0A031D462CEF0A031D462CD1
:10088000EF0CEE0CED0CF70A0319882C6B1BCA2B2E
:10089000EB1B0C2C6A2C8030EF06EF1F532C8D2C99
:1008A0006608EA00602C6208EA00EF08031D602C6D
:1008B000EE08031D602CED08031D602CF701812C50
:1008C000EF1B6A2C0310EC0DED0DEE0DEF0DF70B89
:1008D000602C882CEA1F6E2CEF17812CEF13812CD3
:1008E0006508F7006608EF006708EE006808ED008D
:1008F000812C6108F7006208EF006308EE006408CD
:10090000ED006F08F8006E08F9006D08FA00C02CC1
:10091000F701F801F901FA01C02CEC01ED09EE092B
:10092000EF09EC09EC0A031D9B2CED0A031D9B2C1F
:10093000EE0A0319EF0A6B18A92BEB18EB2B6B19B6
:10094000212C502C0008ED07031CAC2CEE0A031DD3
:10095000AC2CEF0A0319691484030008EE07031C8A
:10096000B42CEF0A0319691484030008801F803A2D
:10097000EF07031869146B1AB02BEB1AF22B282C13
:100980000800D501D401D3017F30D200D901D801AC
:10099000D701D6015A14DA105A11DC014E084F045F
:1009A000031DD72CF701F801F901FA01AA2E5C0802
:1009B000DC0A4E07840083134F1883170008DB00FE
:1009C000DB080319682E5A1CF72C5B08203C03191E
:1009D000F72C5A105B082B3C031DF12CDA105E2E0D
:1009E000F72C5B082D3C031DF72CDA145E2E5A18E9
:1009F000012D5B082E3C031D012D5A19012D5A159E
:100A00005E2E5A185C2E5B082F3C03185C2E5B0888
:100A1000393C031C5C2E3030DB025A1D262E550853
:100A2000E0005408DF005308DE005208DD00E40156
:100A3000E3012030E2008230E100EE227A08D500A6
:100A40007908D4007808D3007708D200E2015B0867
:100A5000E10063237A08E0007908DF007808DE000F
:100A60007708DD006008E4005F08E3005E08E2004C
:100A70005D08E1005508E8005408E7005308E60067
:100A80005208E50061080319072EED0065080319F7
:100A9000072EED02031C512D7F30ED070318072EA2
:100AA000572D8130ED02031C072E0319072E6D0808
:100AB000F700F801F901FA01EC016208EB00EB170D
:100AC0006308EA006408E9001930ED006808E902EB
:100AD00003187A2D0130EA0203187A2DEB0203186D
:100AE0007A2DEC0203187A2DEC0AEB0AEA0A680860
:100AF000E907AC2D6708EA020318952D0130EB02D7
:100B00000318952DEC020318952DEC0AEB0A6708E3
:100B1000EA076808E907031CAC2DEA0A031DAC2D9F
:100B2000EB0A031DAC2DEC0AAC2D66088038EB02F5
:100B30000318AB2D0130EC020318AB2DEC0A66084C
:100B40008038EB076708EA07031C892DEB0A031DB1
:100B5000892DEC0A892D7A14ED0BAF2DBA2D0310D7
:100B6000E90DEA0DEB0DEC0D0310FA0DF90DF80D82
:100B7000EE0D662D6E1CC22D0310F80CF90CFA0C4C
:100B8000EE0CC52DF7030319072EEE1BEE2D0310F7
:100B9000E90DEA0DEB0DEC0D6808E9020318DA2DFA
:100BA0000130EA020318DA2DEB020318DA2DEC0209
:100BB000031CFD2D6708EA020318E52D0130EB0246
:100BC0000318E52DEC02031CFD2D66088038EB02AE
:100BD0000318EE2D0130EC02031CFD2DFA0A031D53
:100BE000FD2DF90A031DFD2DF80A031DFD2DF70A41
:100BF0000319072EF80CF90CFA0C6208ED006608D0
:100C0000ED06ED1F052EF8170B2EF8130B2EF7012E
:100C1000F801F901FA0183105908E4005808E300CB
:100C20005708E2005608E1007A08E8007908E70072
:100C30007808E6007708E50080237A08D90079086B
:100C4000D8007808D7007708D6005B2EE001DF01D6
:100C50002030DE008230DD005908E4005808E3004F
:100C60005708E2005608E100EE227A08E000790811
:100C7000DF007808DE007708DD00E2015B08E100B4
:100C8000632383106008E4005F08E3005E08E2006D
:100C90005D08E1007A08E8007908E7007808E600D6
:100CA0007708E50080237A08D9007908D800780809
:100CB000D7007708D6005E2E5A1C682E5C08DC0A26
:100CC0004E07840083134F1883170008DB00E02CC5
:100CD000DA1C812EE001DF018030DE007F30DD0094
:100CE0005908E4005808E3005708E2005608E100FC
:100CF000EE227A08D9007908D8007808D70077085A
:100D0000D600500851040319A22EDC080319972EAF
:100D1000DC03500884008313511883175C084E07C6
:100D20008000840A4F0880000318800AA22E500811
:100D30008400831351188317840A4F0880008403AA
:100D40004E0880005608F7005708F8005808F900C8
:100D50005908FA000800CB0183160510051083120C
:100D600005101930CD0004218316051083120514D7
:100D70000930F700F70BBA2EBD2E83160514831227
:100D80000518C02E051CC22E0518C42E582278083E
:100D9000A70058227808A80058227808A9005822ED
:100DA0007808AA0058227808AB00280827072907E6
:100DB0002A07CB002B084B02031D3A2FAD0143300D
:100DC000AC002708CC001130CD0097222E30D20085
:100DD0008A222808CC001830CD0097224008FA005B
:100DE0003F08CC004008CD00CF014330CE00D101F8
:100DF000D001C1244C08840083134D188317770851
:100E00008000840A78088000840A79088000840AB7
:100E10007A088000AD014330AC002908CC001130C5
:100E2000CD0097222E30D2008A222A08CC0018301A
:100E3000CD0097224208FA004108CC004208CD00BC
:100E4000CF014330CE00D101D001C1244C08840031
:100E500083134D18831777088000840A7808800070
:100E6000840A79088000840A7A0880000130F8003A
:100E70003C2F3C2F0030F80008004C08B63CCC005A
:100E8000FA014D08D000CD170310CD0CCE0CCF0CBD
:100E9000FA0CF90CF80CF70CCC0B442FD01F5B2F7D
:100EA000F709F809F909FA09F70A0319F80A031901
:100EB000F90A0319FA0A08008318612F54308400D4
:100EC0008313F701F801F901FA01D401D501D60124
:100ED000D701530852045104500403199F2F2030A6
:100EE000D8000310CC0DCD0DCE0DCF0DD40DD50DEA
:100EF000D60DD70D53085702031D882F52085602EE
:100F0000031D882F51085502031D882F50085402D5
:100F1000031C992F5008D4025108031C510FD5020D
:100F20005208031C520FD6025308031C530FD7025A
:100F30000314F70DF80DF90DFA0DD80B712F5408A5
:100F40008000840A55088000840A56088000840ABC
:100F50005708800008004008C7004408C706C71F9C
:100F6000B62F03110310C01B0314E92F4008C7005C
:100F70004308C8003F08C8020319C42FC71FE92F40
:100F80000308013A8300E92F4408C8004008C8025A
:100F90000319D02FC71FE92F0308013A8300E92F57
:100FA0004508C8004108C8020319DC2FC71FE92FF4
:100FB0000308013A8300E92F4608C8004208C80226
:100FC0000319E82FC71FE92F0308013A8300E92F0F
:040FD0000310080002
:101000000408C4004308C600031921284208E00070
:101010004108DF004008DE003F08DD00E401E30195
:101020002030E2008230E1008A11EE228A157A082F
:10103000C2007908C1007808C0007708BF00C60B5D
:1010400006284208CF004108CE004008CD003F08E6
:10105000CC008A113D278A157A08C2007908C100A0
:101060007808C0007708BF00C21F4328C403C41615
:10107000BF09C009C109C209BF0A0319C00A03197F
:10108000C10A0319C20A3B30CB009A30CA00CA30E9
:10109000C900C8010A30C60043080319C40A8314F2
:1010A0003F30840083134208CF004108CE0040083F
:1010B000CD003F08CC004B08D3004A08D2004908B5
:1010C000D1004808D0008A115C278A157808F708F3
:1010D000031D7D28430A460203197D28440803198D
:1010E0007F280F394602031977280318B728C41B35
:1010F000B728441B7F282030B1282030C405C41EE7
:101100008F28C4124308031DC4037708C4002D3080
:10111000CC008A11BB218A154408F700C40143089A
:101120004602031D9F287708C4002E30CC008A1188
:10113000BB218A154408F7002030C4050030303048
:10114000C41EB128C4124308031DC4037708C40099
:101150002D30CC008A11BB218A154408F700C40148
:101160003030F7077708CC008A11BB218A1583102D
:101170004B08CF004A08CE004908CD004808CC00F3
:10118000D301D201D1010A30D0008A115C278A151F
:101190007A08CB007908CA007808C9007708C80027
:1011A000C60B4F2808000B08C0008B1383160317CB
:1011B0008C170C140000000083120313C01B8B1744
:1011C00003180B2903170C087F390313C0000317FA
:1011D0000D080313C10003170F080313C2004008D2
:1011E0000C1EF0289900410803178D0003134208D4
:1011F00003178F0003130B08C3008B138316031709
:101200008C170C140000000083120313C31B8B17F0
:10121000BF0B0B292B2903170C0D0E0D7F39031360
:10122000C00003170D080313C10003170F080313B1
:10123000C20040080C1E1A299900410803178D00AE
:101240000313420803178F008D0A03198F0A031036
:101250000313BF0BD32808000408C4004308C600CA
:1012600003194D294208E0004108DF004008DE0074
:101270003F08DD00E401E3012030E2008230E100BC
:101280008A11EE228A157A08C2007908C10078080E
:10129000C0007708BF00C60B32294208CF004108C2
:1012A000CE004008CD003F08CC008A113D278A15AA
:1012B0007A08C2007908C1007808C0007708BF002A
:1012C000C21F6F29C403C416BF09C009C109C209DE
:1012D000BF0A0319C00A0319C10A0319C20A3B3025
:1012E000CB009A30CA00CA30C900C8010A30C60013
:1012F00043080319C40A83143F308400831342084F
:10130000CF004108CE004008CD003F08CC004B087C
:10131000D3004A08D2004908D1004808D0008A11F9
:101320005C278A157808F708031DA929430A460295
:101330000319A92944080319AB290F3946020319D7
:10134000A3290318DF29C41BDF29441BAB29203044
:10135000DA292030C405C41EBA29C4124308031D6B
:10136000C4037708C4002D300C1EB429990044082A
:10137000F700C40143084602031DC9297708C400C9
:101380002E300C1EC12999004408F7002030C405F6
:1013900000303030C41EDA29C4124308031DC403D0
:1013A0007708C4002D300C1ED32999004408F7009B
:1013B000C4013030F70777080C1EDC299900831030
:1013C0004B08CF004A08CE004908CD004808CC00A1
:1013D000D301D201D1010A30D0008A115C278A15CD
:1013E0007A08CB007908CA007808C9007708C800D5
:1013F000C60B7B29080078083F08D2006430D30070
:101400008A1175228A157708BF0078083030031DCD
:10141000102AC01C182AC019182A401A2030132A72
:10142000C01140124014F80778080C1E152A9900C4
:101430003F08D2000A30D3008A1175228A15770836
:10144000BF0078083030031D2B2AC019302A401CF9
:10145000302A401A2030F80778080C1E2D2A9900EF
:101460003030BF073F080C1E332A990008000B08D4
:10147000BF008B13831603178C170C140000000099
:1014800083120313BF1B8B1703170C087F39031933
:101490008D2A0313BF0003170D080313C0000317A1
:1014A0000F080313C1003F080C1E542A990040087E
:1014B00003178D000313410803178F0003130B0854
:1014C000C2008B13831603178C170C140000000046
:1014D00083120313C21B8B1703170C0D0E0D7F39DC
:1014E00003198D2A0313BF0003170D080313C0004F
:1014F00003170F080313C1003F080C1E7D2A990033
:10150000400803178D000313410803178F008D0A4D
:1015100003198F0A0313372A03170313080003085C
:101520001F398300613083168F000F088312A001DA
:10153000831603178711193003139900A6309800FA
:10154000903083129800AD01AC01FF30AE008316DD
:1015500003170908C039890003131F129F120030B6
:1015600003178800831287018801890183130313FD
:10157000A101A201AF01B0018A116B298A150430C3
:1015800003178D0000308F008A110313E7218A159D
:101590000830BF00FA30CD008A1104218A15BF0B34
:1015A000CA2A0C30CC008A11BB218A150C30CC0021
:1015B0008A11BB218A150A300C1EDC2A99000D30D5
:1015C0000C1EE02A9900AE102E08831687008312A5
:1015D00087102E112E088316870083120711AF0182
:1015E0002E102E0883168700831207100130CD00BD
:1015F000CE008A11A9218A150A3003178D00003008
:101600008F008A110313E7218A150130CD000230C3
:10161000CE008A11A9218A15123003178D000030DF
:101620008F008A110313E7218A158A113D228A153A
:101630007808BD003D08613C0319212B3D08623C40
:1016400003192C2B0230BF00FA30CD008A1104217F
:101650008A15BF0B242BD62A3D08613A0319342B77
:10166000033A0319662DAD2FC0013130BF00C2010E
:101670003930C1008A11AB268A157808B00083166C
:1016800085148312AF018518AF0A0C30CC008A1183
:10169000BB218A150130CD00CE008A11A9218A15FF
:1016A0001A3003178D0000308F008A110313E721D1
:1016B0008A15AF08031D6D2B0830CD000130CE0018
:1016C0008A11A9218A151E3003178D0000308F0062
:1016D0008A110313E7218A157D2B0830CD000130D4
:1016E000CE008A11A9218A15233003178D000030FE
:1016F0008F008A110313E7218A15300B372D8314CD
:101700003408E4003308E3003208E2003108E10065
:10171000E801E701E6018430E5008A1180238A159B
:101720007A08C2007908C1007808C0007708BF00B5
:101730007A08E0007908DF007808DE007708DD002D
:10174000E430E4003830E3000E30E2007E30E100A7
:101750008A11EE228A157A08B8007908B70078084D
:10176000B6007708B5000130CD000230CE008A11F6
:10177000A9218A155430CC008A11BB218A153A3030
:10178000CC008A11BB218A152030CC008A11BB21E4
:101790008A15893084003808C2003708C10036082D
:1017A000C0003508BF000130C30000202030CC004D
:1017B0008A11BB218A15DF30CC008A11BB218A1522
:1017C0004330CC008A11BB218A15C201C10170309F
:1017D000C0008230BF003808C6003708C500360890
:1017E000C4003508C3008A11AB278A150318FA2BE9
:1017F000031D6C2C3808C2003708C1003608C00031
:101800003508BF00C601C5017030C4008330C30075
:101810008A11AB278A1503180F2C031D6C2C2F0B74
:101820006C2CAE102E0883168700831287142E119D
:101830002E0883168700831207110C30CD0002306A
:10184000CE008A11A9218A15273003178D00003098
:101850008F008A110313E7218A152A3003178D00A0
:1018600000308F00031011300313BF00D3208930E4
:1018700084003808C2003708C1003608C0003508A7
:10188000BF000130C3002C2120300C1E452C9900D4
:10189000DF300C1E492C9900363003178D000030C4
:1018A0008F0003100F300313BF00D3202F08BF0099
:1018B0001B30C000FB213E3003178D0000308F002D
:1018C000031417300313BF00D3202E102E088316E5
:1018D000870083120710362DC201C1017030C0008D
:1018E0008330BF003808C6003708C5003608C4007A
:1018F0003508C3008A11AB278A15031CDC2C2F0B7B
:10190000DC2CAE102E0883168700831287142E114C
:101910002E0883168700831207110C30CD00023089
:10192000CE008A11A9218A154B3003178D00003093
:101930008F008A110313E7218A154E3003178D009B
:1019400000308F00031011300313BF00D320893003
:1019500084003808C2003708C1003608C0003508C6
:10196000BF000130C3002C2120300C1EB52C990083
:10197000DF300C1EB92C99005A3003178D0000304F
:101980008F00031015300313BF00D3202F08BF00B2
:101990001B30C000FB21653003178D0000308F0025
:1019A000031411300313BF00D3202E102E0883160A
:1019B000870083120714362DAE102E088316870079
:1019C000831287102E112E088316870083120711A9
:1019D0000C30CD000230CE008A11A9218A156F305B
:1019E00003178D0000308F008A110313E7218A1539
:1019F000723003178D0000308F0003101130031375
:101A0000BF00D320893084003808C2003708C100E5
:101A10003608C0003508BF000130C3002C2120303B
:101A20000C1E102D9900DF300C1E142D99007E30F5
:101A300003178D0000308F0003100F300313BF0019
:101A4000D3202F08BF001B30C000FB2186300317B6
:101A50008D0000308F00031418300313BF00D32013
:101A60002E102E0883168700831207104E2D01308A
:101A7000CD000230CE008A11A9218A1593300317B8
:101A80008D0000308F008A110313E7218A159630EC
:101A900003178D0000308F0003133722AF018A1126
:101AA0003D228A157808BE003E08733C0319622D5A
:101AB0000630BF00FA30CD008A1104218A15BF0B11
:101AC0005A2D342B3E08733C0319AD2FAE102E084F
:101AD00083168700831287142E112E088316870021
:101AE000831207112E102E08831687008312071405
:101AF000C0013130BF00C2013930C1008A11AB26AC
:101B00008A157808B000831685148312AF018518F2
:101B1000AF0A0C30CC008A11BB218A150130CD00F0
:101B2000CE008A11A9218A159E3003178D0000303E
:101B30008F008A110313E7218A15300B602E83145E
:101B40003408E4003308E3003208E2003108E10021
:101B5000E801E701E6018430E5008A1180238A1557
:101B60007A08C2007908C1007808C0007708BF0071
:101B70007A08E0007908DF007808DE007708DD00E9
:101B8000E430E4003830E3000E30E2007E30E10063
:101B90008A11EE228A157A08B8007908B700780809
:101BA000B6007708B5000130CD000230CE008A11B2
:101BB000A9218A155430CC008A11BB218A153A30EC
:101BC000CC008A11BB218A152030CC008A11BB21A0
:101BD0008A15893084003808C2003708C1003608E9
:101BE000C0003508BF000130C30000202030CC0009
:101BF0008A11BB218A15DF30CC008A11BB218A15DE
:101C00004330CC008A11BB218A15A23003178D0006
:101C100000308F00031011300313BF00D320893030
:101C200084003808C2003708C1003608C0003508F3
:101C3000BF000130C3002C2120300C1E1D2E990046
:101C4000DF300C1E212E9900AE3003178D000030BE
:101C50008F0003100F300313BF00D3202F08BF00E5
:101C60001B30C000FB21B63003178D0000308F0001
:101C7000031418300313BF00D320AE102E088316B0
:101C80008700831287102E112E0883168700831277
:101C900007110C30CD000230CE008A11A9218A151F
:101CA000C33003178D0000308F008A110313E72122
:101CB0008A152E102E088316870083120714772E9C
:101CC0000130CD000230CE008A11A9218A15C6301C
:101CD00003178D0000308F008A110313E7218A1546
:101CE000C93003178D0000308F00031337228A118B
:101CF0003D228A157808BE003E08633C0319832EF6
:101D00003E08733C03198E2E0630BF00FA30CD001A
:101D10008A1104218A15BF0B862E782D3E08733C4C
:101D20000319AD2FC0013130BF00C2013930C100ED
:101D30008A11AB268A157808B000831685148312A1
:101D4000AF018518AF0A0C30CC008A11BB218A156F
:101D50000130CD00CE008A11A9218A15D130031798
:101D60008D0000308F008A110313E7218A15300B94
:101D70007A2F83143408E4003308E3003208E200C9
:101D80003108E100E801E701E6018430E5008A114D
:101D900080238A157A08C2007908C1007808C0003B
:101DA0007708BF007A08E0007908DF007808DE00D5
:101DB0007708DD00E430E4003830E3000E30E20064
:101DC0007E30E1008A11EE228A157A08B80079087F
:101DD000B7007808B6007708B5000130CD000230B2
:101DE000CE008A11A9218A155430CC008A11BB215A
:101DF0008A153A30CC008A11BB218A152030CC00DC
:101E00008A11BB218A15893084003808C20037083E
:101E1000C1003608C0003508BF000130C3000020F3
:101E20002030CC008A11BB218A15DF30CC008A110A
:101E3000BB218A154330CC008A11BB218A15D530CD
:101E400003178D0000308F00031011300313BF0003
:101E5000D320893084003808C2003708C100360812
:101E6000C0003508BF000130C3002C2120300C1EFB
:101E7000372F9900DF300C1E3B2F9900E1300317FC
:101E80008D0000308F0003100F300313BF00D320EC
:101E90002F08BF001B30C000FB21E93003178D0065
:101EA00000308F00031417300313BF00D320AE108F
:101EB0002E0883168700831287142E112E0883168E
:101EC0008700831207112E102E08831687008312B5
:101ED00007140C30CD000230CE008A11A9218A15DA
:101EE000F63003178D0000308F008A110313E721AD
:101EF0008A15912F0130CD000230CE008A11A92120
:101F00008A15F93003178D0000308F008A110313F2
:101F1000E7218A15FC3003178D0000308F00031372
:101F200037228A113D228A157808BE003E08633C9C
:101F300003199D2F3E08733C0319A82F0630BF00DC
:101F4000FA30CD008A1104218A15BF0BA02F922EE2
:0E1F50003E08733C0319AD2F662DD12A6300A5
:04400E00A42CFF3FA0
:00000001FF
;PIC16F887
;CRC=0D56  CREATED="03-Dec-23 02:07"
