:1000000008308A00002800000C29E530E43C2E1757
:100010002E05000049376739E53965107537A03678
:100020006F326F10E432203AF230E230EA373A10A1
:100030008A060000611DA0266137F5306C050D00B1
:10004000621DA029E536E930753AEF36613AE931AB
:100050006F10A8266F37693A6F39A0396539E932D0
:1000600029050D00D332EC32E331E9376E10ED375C
:10007000E4370001611DCD30EE3A203E2031BA292F
:10008000E5366900D630EC37721069376739E539E3
:1000900061326F1DA01263050D004D1DCD300001B2
:1000A000CD37E437203265107439613161356F1016
:1000B000611DA0266137F5306C050D00CC32633A26
:1000C00075396110D3183A10A53A8A06801DCC32D2
:1000D000633A75396110D3183A10A53A8A060001BF
:1000E000441DC3320001D3183A10A53A8A06000114
:1000F000C434F232E331E9376E1DA021653774391B
:100100006F050D0047396132EF393A102517323348
:10011000A5310002441DC4320000D3183A10A53A9C
:100120008A060001C434F232E331E9376E1D202221
:100130006539E531E8308A06000147396132EF3927
:100140003A1025173233A5318A060001441D493D76
:100150000001D3183A10A53A8A060001C434F232DD
:10016000E331E9376E1DA024FA38F5346539E430FF
:100170008A06000147396132EF393A1025173233C8
:10018000A5318A060001D2327010561D2517323370
:10019000A512000053193A10A53A8A060001C53984
:1001A000F430E4373A10D232F037F3378A060001E0
:1001B000D632EC37E334E430641DA0122E19E61277
:1001C0002500CD307210561D25173233A5120001BF
:1001D00053193A10A53A8A060001C539F430E437BC
:1001E0003A10CD30F231E8308A060001D632EC37D1
:1001F000E334E430641DA0122E19E6122500D23239
:100200007610561D25173233A512000153193A10E6
:10021000A53A8A060001C539F430E4373A10D232E3
:10022000F632F23961050D00D632EC37E334E430B2
:10023000641DA0122E19E612250049376739E539E9
:1002400065107310F030F230A0396136693920053D
:100250000D004D1DC13AF437ED30F434E3370001A1
:10026000CD37E437203265107439613161356F1054
:10027000621DA020753AEF36613AE9316F050D0035
:10028000C432F432EE327200C432EE34E4373A1043
:10029000C83079107537A037E239F430E33AEC37DB
:1002A0000001413B6137FA307200413B6137FA305F
:1002B0006E326F0049376739E53965107310F030D9
:1002C000F230A0396136693920050D0040308400D4
:1002D0008313000803197A290130F800F701F70B9E
:1002E0006F29F80B6E294A30F700F70B752978292A
:1002F000800B6C290800470EF039F7000F30080515
:1003000077048800000008148529081008000808F0
:10031000F700080E0F39F80008008316081088103F
:100320000811831288100F3083160805F0388800F2
:100330008312081500000814000087217808C70000
:10034000081000000814000087217808C600081073
:100350000F308316080588008312470EF700F0302F
:10036000F70577084604F8007808C600C61B9329ED
:10037000441C88104418881400000811000008105C
:10038000450EC6000F30C6054608C7007B2145084C
:100390000F39C600C7007B2108002830B3000C309D
:1003A000B4000130B5000630B600081088100811FE
:1003B0000F308316080588000810881008110F30C8
:1003C0008312C00066210130B2003208033C031CD6
:1003D000F1290330C7007B210530C0006621B20A35
:1003E000E5290230C7007B210530C0006621B2013B
:1003F0003208033C031C082A33303207840083137D
:100400000008B700C4013708C5008D21B20AF829D9
:100410008A150A124028410B0E2A112A4030C200C8
:10042000122AC20101304002C20742088038C300CC
:10043000C4014308C5008D2108003F08073A03198D
:100440002B2A0B3A0319302A063A0319382A023AA2
:1004500003193E2A432A0130C000C1000B22482A5A
:10046000C4010130C5008D210230C0006621482A38
:100470000130C0000230C1000B22482AC4011030F4
:10048000C5008D21482A0130C4003F08C5008D21D8
:1004900008000B08B2008B13831603178C170C147B
:1004A0000000000083120313B21B8B1703170C0804
:1004B0007F3903199D2A0313B20003170D08031394
:1004C000B30003170F080313B4003208BF001D2246
:1004D000330803178D000313340803178F00031329
:1004E0000B08B5008B13831603178C170C14000030
:1004F000000083120313B51B8B1703170C0D0E0D91
:100500007F3903199D2A0313B20003170D08031343
:10051000B30003170F080313B4003208BF001D22F5
:10052000330803178D000313340803178F008D0A57
:1005300003198F0A0313492A0317031308000B0832
:10054000B2008B13831603178C170C1400000000E5
:1005500083120313B21B8B1703170C087F3903197F
:10056000F52A0313B20003170D080313B300031792
:100570000F080313B40032080C1EBC2A990033087C
:1005800003178D000313340803178F0003130B08A0
:10059000B5008B13831603178C170C140000000092
:1005A00083120313B51B8B1703170C0D0E0D7F3928
:1005B0000319F52A0313B20003170D080313B30040
:1005C00003170F080313B40032080C1EE52A990024
:1005D000330803178D000313340803178F008D0AA7
:1005E00003198F0A03139F2A03170313080001300E
:1005F000B3004030B2006730F700F70BFD2A002B44
:10060000B20B072BB30B072BA001F801112B8C1E8B
:10061000FB2A1808A0001A08F800A01C112B1812B9
:10062000181608000B08B3008B13831603178C17DA
:100630000C140000000083120313B31B8B17031864
:100640004A2B03170C087F390313B30003170D0857
:100650000313B40003170F080313B50033080C1E6F
:100660002F2B9900340803178D0003133508031747
:100670008F0003130B08B6008B13831603178C1718
:100680000C140000000083120313B61B8B17B20B6F
:100690004A2B6A2B03170C0D0E0D7F390313B30081
:1006A00003170D080313B40003170F080313B50055
:1006B00033080C1E592B9900340803178D000313BF
:1006C000350803178F008D0A03198F0A03100313CF
:1006D000B20B122B08003508F80134020318732BF3
:1006E0003408F7007F2BF7010830B600B40DF70D82
:1006F000350877020318F700F80DB60B762B0800C3
:1007000078083208B4006430B5006B237708B20073
:1007100078083030031D932BB31C9B2BB3199B2BF4
:10072000331A2030962BB31133123314F80778089C
:100730000C1E982B99003208B4000A30B5006B23C8
:100740007708B20078083030031DAC2BB319B12BF9
:10075000331CB12B331A2030F80778080C1EAE2B4F
:1007600099003030B20732080C1EB42B99000800F3
:100770003F080319282CC70043080319282CC70772
:100780000318C92B7F30C702031C282C0319282CFF
:10079000CD2B8130C7070318282C4708F700F80134
:1007A000F901FA014008CB00CB174108CA00420802
:1007B000C9001830C700C801491CF62B4608FA07C3
:1007C000031CE82BF90A031DE82BF80A0319C817C4
:1007D0004508F907031CEF2BF80A0319C81744084A
:1007E000C100C1174108F8070318C817C80DF80C55
:1007F000F90CFA0CCB0CCA0CC90C0310C70BDB2B81
:100800000130F7070318282CF81B0D2CCB0DFA0D1F
:10081000F90DF80DF7030319282CCB1F1E2CFA0A2B
:10082000031D1E2CF90A031D1E2CF80A031D1E2C85
:10083000F80CF90CFA0CF70A0319282C4008C80028
:100840004408C806C81F262CF8172C2CF8132C2C8B
:10085000F701F801F901FA0108003F08B63CBF00B2
:10086000FA014008C300C0170310C00CC10CC20C31
:10087000FA0CF90CF80CF70CBF0B342CC31F4B2CE3
:10088000F709F809F909FA09F70A0319F80A031927
:10089000F90A0319FA0A08008318512C473084001A
:1008A0008313F701F801F901FA01C701C801C90171
:1008B000CA01460845044404430403198F2C203020
:1008C000CB000310BF0DC00DC10DC20DC70DC80D6B
:1008D000C90DCA0D46084A02031D782C4508490275
:1008E000031D782C44084802031D782C4308470256
:1008F000031C892C4308C7024408031C440FC80288
:100900004508031C450FC9024608031C460FCA02CE
:100910000314F70DF80DF90DFA0DCB0B612C4708F8
:100920008000840A48088000840A49088000840AFC
:100930004A08800008000408B7003608B900031907
:10094000BA2C3508C2003408C1003308C000320890
:10095000BF00C601C5012030C4008230C300B823E7
:100960007A08B5007908B4007808B3007708B200B7
:10097000B90BA12C3508C2003408C1003308C000EF
:100980003208BF002D247A08B5007908B400780831
:10099000B3007708B200B51FDA2CB703B716B20957
:1009A000B309B409B509B20A0319B30A0319B40AA1
:1009B0000319B50A3B30BE009A30BD00CA30BC00F6
:1009C000BB010A30B90036080319B70A8314323064
:1009D000840083133508C2003408C1003308C00006
:1009E0003208BF003E08C6003D08C5003C08C400F0
:1009F0003B08C3004C247808F708031D122D360A63
:100A000039020319122D37080319142D0F39390231
:100A100003190C2D0318442DB71B442D371B142D1F
:100A20002030402D2030B705B71E222DB7123608D2
:100A3000031DB7037708B7002D30BF001D2237080C
:100A4000F700B70136083902031D302D7708B700CB
:100A50002E30BF001D223708F7002030B7050030C8
:100A60003030B71E402DB7123608031DB703770884
:100A7000B7002D30BF001D223708F700B701303016
:100A8000F7077708BF001D2283103E08C2003D080B
:100A9000C1003C08C0003B08BF00C601C501C4013D
:100AA0000A30C3004C247A08BE007908BD007808DB
:100AB000BC007708BB00B90BE62C08000408B7009F
:100AC0003608B90003197D2D3508C2003408C1006D
:100AD0003308C0003208BF00C601C5012030C40081
:100AE0008230C300B8237A08B5007908B4007808CA
:100AF000B3007708B200B90B642D3508C200340882
:100B0000C1003308C0003208BF002D247A08B500A8
:100B10007908B4007808B3007708B200B51F9D2D9E
:100B2000B703B716B209B309B409B509B20A031974
:100B3000B30A0319B40A0319B50A3B30BE009A3050
:100B4000BD00CA30BC00BB010A30B9003608031929
:100B5000B70A83143230840083133508C200340886
:100B6000C1003308C0003208BF003E08C6003D087F
:100B7000C5003C08C4003B08C3004C247808F708B3
:100B8000031DD52D360A39020319D52D370803194F
:100B9000D72D0F3939020319CF2D03180B2EB71B90
:100BA0000B2E371BD72D2030062E2030B705B71E51
:100BB000E62DB7123608031DB7037708B7002D30AE
:100BC0000C1EE02D99003708F700B70136083902EE
:100BD000031DF52D7708B7002E300C1EED2D990062
:100BE0003708F7002030B70500303030B71E062E2A
:100BF000B7123608031DB7037708B7002D300C1E57
:100C0000FF2D99003708F700B7013030F707770854
:100C10000C1E082E990083103E08C2003D08C1003A
:100C20003C08C0003B08BF00C601C501C4010A3032
:100C3000C3004C247A08BE007908BD007808BC00C7
:100C40007708BB00B90BA92D08008E30F7003408D7
:100C5000F8003308F900FA01F808031D392E790865
:100C6000F800F9010830F702F808031D392EF701E2
:100C7000412E0310F81B402EF90DF80DF703392E05
:100C8000F81308000B08B3008B13831603178C1797
:100C90000C140000000083120313B31B8B170318FE
:100CA000792E03170C087F390313B30003170D08BF
:100CB0000313B40003170F080313B5003308BF0074
:100CC0001D22340803178D000313350803178F0006
:100CD00003130B08B6008B13831603178C170C1421
:100CE0000000000083120313B61B8B17B20B792E82
:100CF000982E03170C0D0E0D7F390313B300031745
:100D00000D080313B40003170F080313B5003308CD
:100D1000BF001D22340803178D0003133508031785
:100D20008F008D0A03198F0A03100313B20B422E92
:020D30000800B9
:1010000003081F398300613083168F000F08831295
:10101000A001831603178711193003139900A63016
:101020009800903083129800FF30A10083160317B8
:101030000908C039890003131F129F1200300317DB
:10104000880083128701880189018313031321110A
:10105000210883168700831207110C30970083162E
:101060009B019C0101309D000030F800063883127E
:101070009200FF3083169200831295018A11CD29C8
:101080008A15831603170908C039890003131F1234
:101090009F12033003178800831203131F179F1733
:1010A00083169F1383121F14043003178D00003022
:1010B0008F008A11031349228A150830B200FA30D2
:1010C000C0008A1166218A15B20B5F280C30BF0060
:1010D0008A111D228A150C30BF008A111D228A1523
:1010E000211221088316870083120712A1122108FA
:1010F0008316870083128712950121102108831619
:10110000870083120710A11021088316870083121D
:1011100087100A3003178D0000308F008A110313E7
:101120009F228A151A3003178D0000308F008A1114
:1011300003139F228A15203003178D0000308F0083
:101140008A1103139F228A150130C000C1008A1141
:101150000B228A15323003178D0000308F008A1160
:10116000031349228A150130C0000230C1008A11E0
:101170000B228A153A3003178D0000308F008A1138
:10118000031349228A158A11F7228A157808B000BC
:10119000423003178D0000308F000310113003130D
:1011A000B2008A1112238A1530080C1ED528990026
:1011B0000A300C1ED92899000D300C1EDD2899002C
:1011C0003008613C0319E7283008623C0319F22813
:1011D0000230B200FA30C0008A1166218A15B20BC3
:1011E000EA286B283008613A0319FA28033A0319F0
:1011F0000B2DA72D0030F8001F08C33978049F007D
:101200000A30C0008A1166218A159F149F1806298A
:101210001E08A2000430F8001F08C33978049F009C
:101220000A30C0008A1166218A159F149F1816295A
:101230001E08A3000C30BF008A111D228A15013040
:10124000C000C1008A110B228A154D3003178D0092
:1012500000308F008A11031349228A15503003177A
:101260008D0000308F008A1103139F228A155E3093
:1012700003178D0000308F0003100C300313B200F1
:101280008A1112238A152208B2001B30B3008A117A
:1012900080238A150A300C1E4B2999000D300C1E34
:1012A0004F299900673003178D0000308F0003101D
:1012B0000C300313B2008A1112238A152308B200DE
:1012C0001B30B3008A1180238A150A300C1E662950
:1012D00099000D300C1E6A29990022087F3C0319E1
:1012E00075292208803C031DE8290630C000013022
:1012F000C1008A110B228A15703003178D0000304F
:101300008F008A11031349228A150B30C000013067
:10131000C1008A110B228A1589308400B501B401FD
:10132000B301B2010230B6008A119B248A15DF3066
:10133000BF008A111D228A15733003178D000030FB
:101340008F00031004300313B2008A1112238A1590
:101350002208B2001B30B3008A1180238A150A309C
:101360000C1EB02999000D300C1EB429990078305C
:1013700003178D0000308F008A1103139F228A15F6
:10138000823003178D0000308F00031008300313E4
:10139000B2008A1112238A1589308400B501B40184
:1013A000B301B2010230B6008A115E258A15DF3022
:1013B0000C1ED8299900211021088316870083125A
:1013C0000714A11021088316870083128714352B78
:1013D0002208803C0318912A0630C0000130C10069
:1013E0008A110B228A158A3003178D0000308F0076
:1013F0008A11031349228A157E302202B401B300F8
:101400008A1125268A157A08C2007908C100780851
:10141000C0007708BF006E30C600DB30C500363034
:10142000C4007D30C3008A11B8238A157A08A7004A
:101430007908A6007808A5007708A4000B30C00042
:101440000130C1008A110B228A15893084002708D7
:10145000B5002608B4002508B3002408B200023005
:10146000B6008A119B248A15DF30BF008A111D2225
:101470008A158D3003178D0000308F000310043063
:101480000313B2008A1112238A152208B2001B30FE
:10149000B3008A1180238A150A300C1E4D2A990048
:1014A0000D300C1E512A9900923003178D00003028
:1014B0008F008A1103139F228A159D3003178D0018
:1014C00000308F00031008300313B2008A1112237A
:1014D0008A15893084002708B5002608B40025083D
:1014E000B3002408B2000230B6008A115E258A15C6
:1014F000DF300C1E792A99000A300C1E7D2A9900D3
:101500000D300C1E812A99002110210883168700B6
:1015100083120710A11021088316870083128714F5
:10152000352B0630C0000130C1008A110B228A150C
:10153000A63003178D0000308F008A110313492253
:101540008A1522087E3CB401B3008A1125268A152B
:101550007A08C2007908C1007808C0007708BF0087
:101560006E30C600DB30C5003630C4007D30C300AD
:101570008A11B8238A157A08A7007908A600780886
:10158000A5007708A4000B30C0000130C1008A110B
:101590000B228A15893084002708B5002608B4007C
:1015A0002508B3002408B2000230B6008A119B243B
:1015B0008A15DF30BF008A111D228A15A930031752
:1015C0008D0000308F00031004300313B2008A1125
:1015D00012238A152208B2001B30B3008A1180231F
:1015E0008A150A300C1EF22A99000D300C1EF62ABC
:1015F0009900AE3003178D0000308F008A1103135D
:101600009F228A15BA3003178D0000308F00031017
:1016100008300313B2008A1112238A15893084001E
:101620002708B5002608B4002508B3002408B20036
:101630000230B6008A115E258A15DF300C1E1E2B83
:1016400099000A300C1E222B99000D300C1E262BFF
:101650009900211021088316870083120714A11016
:101660002108831687008312871023087F3C031903
:101670003D2B2308803C031DAD2B0130C000023000
:10168000C1008A110B228A15C33003178D00003068
:101690008F00031006300313B2008A1142268A1508
:1016A00089308400B501B401B301B2010230B60043
:1016B0008A119B248A152530BF008A111D228A15A4
:1016C000CA3003178D0000308F000310043003135D
:1016D000B2008A1112238A152308B2001B30B3000E
:1016E0008A1180238A150A300C1E742B99000D3044
:1016F0000C1E782B9900CF3003178D0000308F001F
:101700008A1103139F228A15D83003178D000030E9
:101710008F0003100B300313B2008A1112238A15B5
:1017200089308400B501B401B301B2010230B600C2
:101730008A115E258A1525300C1E9C2B99002112DA
:1017400021088316870083120712A112210883162D
:101750008700831287129501EA2C2308803C031826
:101760004E2C7E302302B401B3008A1125268A153F
:101770007A08C2007908C1007808C0007708BF0065
:10178000B330C6002C30C5004B30C4007E30C300DF
:101790008A11B8238A157A08AB007908AA0078085C
:1017A000A9007708A8000130C0000230C1008A11EA
:1017B0000B228A15E13003178D0000308F000310D3
:1017C00006300313B2008A1142268A15893084003C
:1017D0002B08B5002A08B4002908B3002808B20075
:1017E0000230B6008A119B248A152530BF008A1169
:1017F0001D228A15E83003178D0000308F0003107A
:1018000004300313B2008A1112238A152308B20090
:101810001B30B3008A1180238A150A300C1E0E2C4F
:1018200099000D300C1E122C9900ED3003178D001D
:1018300000308F008A1103139F228A15F630031798
:101840008D0000308F0003100B300313B2008A119B
:1018500012238A1589308400B501B401B301B201A5
:101860000230B6008A115E258A1525300C1E362CF2
:101870009900211221088316870083120716A112EE
:10188000210883168700831287127E302302F70017
:101890000310770DAC002C089500EA2C23087E3C41
:1018A000B401B3008A1125268A157A08C200790886
:1018B000C1007808C0007708BF00B330C6002C30E4
:1018C000C5004B30C4007E30C3008A11B8238A158E
:1018D0007A08AB007908AA007808A9007708A80060
:1018E0000130C0000230C1008A110B228A15FF307E
:1018F00003178D0000308F00031006300313B20071
:101900008A1142268A15893084002B08B5002A08DE
:10191000B4002908B3002808B2000230B6008A11CA
:101920009B248A152530BF008A111D228A15063096
:1019300003178D0001308F00031004300313B20031
:101940008A1112238A152308B2001B30B3008A11B2
:1019500080238A150A300C1EAB2C99000D300C1E0A
:10196000AF2C99000B3003178D0001308F008A11C6
:1019700003139F228A15143003178D0001308F0046
:1019800003100B300313B2008A1112238A15893019
:101990008400B501B401B301B2010230B6008A116E
:1019A0005E258A1525300C1ED32C990021122108A2
:1019B0008316870083120712A1122108831687005D
:1019C0008312871623087E3CF7000310770DAD00C5
:1019D0002D0895000A30C0008A1166218A151D3035
:1019E00003178D0001308F008A1103139F228A157F
:1019F0008A11F7228A157808B1003108733C03195F
:101A0000072D0A30C0008A1166218A15FA2831088C
:101A1000733C0319A72D0430F8001F08C33978045C
:101A20009F000A30C0008A1166218A159F149F18F2
:101A3000172D1E08A3000C30BF008A111D228A1525
:101A40000130C000C1008A110B228A15293003170A
:101A50008D0001308F008A11031349228A1530301E
:101A600003178D0001308F008A1103139F228A15FE
:101A70002308803C0318632D0130C0000230C100F0
:101A80008A110B228A15403003178D0001308F0018
:101A90008A11031349228A15443003178D0001303F
:101AA0008F008A1103139F228A15950121102108A6
:101AB0008316870083120710A11021088316870060
:101AC000831287108A2D0130C0000230C1008A11B4
:101AD0000B228A15513003178D0001308F008A11B7
:101AE000031349228A15553003178D0001308F00EA
:101AF0008A1103139F228A15C830950021102108EE
:101B00008316870083120714A1102108831687000B
:101B1000831287146430C0008A1166218A155A30F6
:101B200003178D0001308F008A1103139F228A153D
:101B30008A11F7228A157808B1003108733C03191D
:101B4000A72D6430C0008A1166218A150B2D6628E6
:021B5000630030
:04400E00A42CFF3FA0
:00000001FF
;PIC16F887
;CRC=D10E  CREATED="22-Nov-23 00:23"
