:1000000008308A00002800000C29E530E43C2E1757
:100010002E05000049376739E53965107537A03678
:100020006F326F10E432203AF230E230EA373A10A1
:100030008A060000411DA020C4218A060001421D3D
:10004000A0266137F5306C10A8266F37693A6F39F2
:10005000A0396539E93229050D00D332EC32E3319C
:10006000E9376E10ED37E4370001411D4122C31717
:10007000421DCD20CE2A4126000149376739E53996
:1000800065107537A0366F326F10E432203AF230C7
:10009000E230EA373A108A060001411DA020C4214F
:1000A0008A060001421DA0266137F5306C10A82693
:1000B0006F37693A6F39A0396539E93229050D0082
:1000C000D332EC32E331E9376E10ED37E43700011B
:1000D000411D4122C3172F21BA264127D5204C00AC
:1000E000D630EC37721069376739E53961326F1DE8
:1000F000A01263050D00CD37E437A0203A1041224D
:10010000C31E25267500CD37E437203265107439BB
:10011000613161356F10411DA020C4218A060001A4
:10012000D630EC377210E4326C10412243103D108F
:10013000252675050D00453765396F00C539A03294
:100140006C10ED327310E432A022CE22D2272005AB
:100150000D00C632623965396F00C539A0326C10A6
:10016000ED327310E43220234521D222D22720051C
:100170000D00CD30723D6F00C539A0326C10ED32EC
:100180007310E432A0264129DA2720050D00413101
:10019000F2346C00C539A0326C10ED327310E432C9
:1001A000A0204229492620050D00CD30F937000155
:1001B000C539A0326C10ED327310E432A026C12C88
:1001C0004F108A060001CA3AEE346F00C539A032DA
:1001D0006C10ED327310E43220255527C927200515
:1001E0000D00CA3AEC346F00C539A0326C10ED3204
:1001F0007310E43220255526C92720050D00C13390
:10020000EF39F4370001C539A0326C10ED327310AC
:10021000E432A020C727532A4F108A060001D332A8
:10022000703AE9326D31F2320001C539A0326C10FA
:10023000ED327310E432A0294528D424C526422982
:1002400045108A060001CF31F43A62396500C5399C
:10025000A0326C10ED327310E432A027432A5521EE
:10026000D22220050D00CE37F634E536623965001E
:10027000C539A0326C10ED327310E43220274F2BB9
:10028000C9224D21D22220050D00C434E334E536C5
:1002900062396500C539A0326C10ED327310E4325A
:1002A0002022C921C9224D21D22220050D00493723
:1002B0006739E53965107310F030F230A0396136D6
:1002C000693920050D00CD37E43720213A10CD30B3
:1002D000EE3A61360001CD37E437203265107439CB
:1002E000613161356F10421DA0266137F5306C0514
:1002F0000D0049376739E53965107537A036E5399E
:10030000A018AD1832050D00D33AA036E539A03259
:10031000EC32E734E437A032731DA01263050D0000
:10032000453765396F00C539A0326C10ED32731056
:10033000E432A022CE22D22720050D00C632623937
:1003400065396F00C539A0326C10ED327310E4329C
:1003500020234521D222D22720050D00CD30723D29
:100360006F00C539A0326C10ED327310E432A02654
:100370004129DA2720050D004131F2346C00C539DE
:10038000A0326C10ED327310E432A02042294926CD
:1003900020050D00CD30F9370001C539A0326C10B1
:1003A000ED327310E432A026C12C4F108A060001F2
:1003B000CA3AEE346F00C539A0326C10ED327310BA
:1003C000E43220255527C92720050D00CA3AEC3410
:1003D0006F00C539A0326C10ED327310E432202565
:1003E0005526C92720050D00C133EF39F437000128
:1003F000C539A0326C10ED327310E432A020C7274B
:10040000532A4F108A060001D332703AE9326D3117
:10041000F2320001C539A0326C10ED327310E432B3
:10042000A0294528D424C526422945108A06000162
:10043000CF31F43A62396500C539A0326C10ED3223
:100440007310E432A027432A5521D22220050D0043
:10045000CE37F634E53662396500C539A0326C1006
:10046000ED327310E43220274F2BC9224D21D222C6
:1004700020050D00C434E334E53662396500C53922
:10048000A0326C10ED327310E4322022C921C9224F
:100490004D21D22220050D00C432F3326110E13328
:1004A000F232E730721075372037F532F637A03662
:1004B000E5393F10A8392F3729050D003230840067
:1004C000831300080319722A0130F800F701F70BB3
:1004D000672AF80B662A4A30F700F70B6D2A702A54
:1004E000800B642A0800390EF039F7000F30080538
:1004F00077048800000008147D2A08100800080806
:10050000F700080E0F39F80008008316081088104D
:100510000811831288100F3083160805F038880000
:10052000831208150000081400007F227808B90023
:1005300008100000081400007F227808B800081096
:100540000F308316080588008312390EF700F0304B
:10055000F70577083804F8007808B800B81B8B2A2C
:10056000361C881036188814000008110000081086
:10057000370EB8000F30B8053808B90073223708B5
:100580000F39B800B900732208002830A9000C30D8
:10059000AA000130AB000630AC000810881008112A
:1005A0000F308316080588000810881008110F30D6
:1005B0008312B2005E220130A8002808033C031C0D
:1005C000E92A0330B90073220530B2005E22A80A7E
:1005D000DD2A0230B90073220530B2005E22A80184
:1005E0002808033C031C002B2930280784008313B0
:1005F0000008AD00B6012D08B7008522A80AF02A30
:100600008A150A122928330B062B092B4030B40017
:100610000A2BB40101303202B40734088038B50027
:10062000B6013508B700852208003108073A0319DA
:10063000232B0B3A0319282B063A0319302B023AC5
:100640000319362B3B2B0130B200B3000323402BA0
:10065000B6010130B70085220230B2005E22402B85
:100660000130B2000230B3000323402BB60110303A
:10067000B7008522402B0130B6003108B700852233
:1006800008000B08A8008B13831603178C170C1493
:100690000000000083120313A81B8B1703170C081C
:1006A0007F390319952B0313A80003170D080313B3
:1006B000A90003170F080313AA002808B100152387
:1006C000290803178D0003132A0803178F0003134B
:1006D0000B08AB008B13831603178C170C14000048
:1006E000000083120313AB1B8B1703170C0D0E0DA9
:1006F0007F390319952B0313A80003170D08031363
:10070000A90003170F080313AA002808B100152336
:10071000290803178D0003132A0803178F008D0A79
:1007200003198F0A0313412B0317031308000B0847
:10073000A8008B13831603178C170C1400000000FD
:1007400083120313A81B8B1703170C087F39031997
:10075000ED2B0313A80003170D080313A9000317BB
:100760000F080313AA0028080C1EB42B99002908AF
:1007700003178D0003132A0803178F0003130B08B8
:10078000AB008B13831603178C170C1400000000AA
:1007900083120313AB1B8B1703170C0D0E0D7F3940
:1007A0000319ED2B0313A80003170D080313A90069
:1007B00003170F080313AA0028080C1EDD2B99004D
:1007C000290803178D0003132A0803178F008D0AC9
:1007D00003198F0A0313972B031703130800013023
:1007E000A9004030A8006730F700F70BF52BF82B75
:1007F000A80BFF2BA90BFF2BA001F801092C8C1EC5
:10080000F32B1808A0001A08F800A01C092C1812D5
:10081000181608000B08A9008B13831603178C17F2
:100820000C140000000083120313A91B8B1703187C
:10083000422C03170C087F390313A90003170D0876
:100840000313AA0003170F080313AB0029080C1E9B
:10085000272C99002A0803178D0003132B08031770
:100860008F0003130B08AC008B13831603178C1730
:100870000C140000000083120313AC1B8B17A80B91
:10088000422C622C03170C0D0E0D7F390313A900A7
:1008900003170D080313AA0003170F080313AB0077
:1008A00029080C1E512C99002A0803178D000313E8
:1008B0002B0803178F008D0A03198F0A03100313E7
:1008C000A80B0A2C08000B08A9008B13831603172A
:1008D0008C170C140000000083120313A91B8B1744
:1008E00003189A2C03170C087F390313A900031768
:1008F0000D080313AA0003170F080313AB00290800
:10090000B10015232A0803178D0003132B080317C2
:100910008F0003130B08AC008B13831603178C177F
:100920000C140000000083120313AC1B8B17A80BE0
:100930009A2CB92C03170C0D0E0D7F390313A90047
:1009400003170D080313AA0003170F080313AB00C6
:100950002908B10015232A0803178D0003132B085B
:1009600003178F008D0A03198F0A03100313A80BB6
:10097000632C8A150A123529B0010408AF00301023
:10098000831B3014290EF038AB00AB07E23EAC00FD
:10099000323EAE0029080F39AC07AC07AE07E93E7E
:1009A000AD00AD07AD07280E0F39AD07AE07AD0D91
:1009B000AE0DAE09AE0D28080F39AE07AB0D0730EE
:1009C000AA000A30AE07AD03031CE22CAD07AC034E
:1009D000031CE62CAC07AB03031CEA2CAB07AA03F1
:1009E000031CEE2C2A308400831307302F052F13AD
:1009F00084072E30040203192F170008F700031D87
:100A0000092D2F1B092D2F1A1B2DAF19092D203051
:100A10000C2DAF152F123030F707A9010408A800DC
:100A20002910831B29147708B10015232808840096
:100A3000831329188317840A2F1FF92C8A150A1289
:100A40003E29B0010408AF003010831B3014290E7A
:100A5000F038AB00AB07E23EAC00323EAE002908F6
:100A60000F39AC07AC07AE07E93EAD00AD07AD07E7
:100A7000280E0F39AD07AE07AD0DAE0DAE09AE0DA8
:100A800028080F39AE07AB0D0730AA000A30AE07B1
:100A9000AD03031C472DAD07AC03031C4B2DAC0766
:100AA000AB03031C4F2DAB07AA03031C532D2A30A5
:100AB0008400831307302F052F1384072E30040280
:100AC00003192F170008F700031D6E2D2F1B6E2D25
:100AD0002F1A762DAF196E2D2030712DAF152F12D4
:100AE0003030F70777080C1E732D9900840A2F1FEA
:080AF0005E2D8A150A125C2933
:1010000003081F398300613083168F000F08831295
:10101000A001831603178711193003139900A63016
:101020009800903083129800FF30A10083160317B8
:101030000908C039890003131F129F1200300317DB
:101040008800831287018801890183138A110313A1
:10105000C52A8A15831603170908C03989000313A6
:101060001F129F12013003178800831203131F17EA
:101070009F1783169F1783121F14043003178D00C8
:1010800000308F008A11031341238A150830A8000D
:10109000FA30B2008A115E228A15A80B4828003067
:1010A000F8001F08C33978049F000A30B2008A1183
:1010B0005E228A150C30B1008A1115238A1521127F
:1010C00021088316870083120712A11221088316B4
:1010D0008700831287120A3003178D0000308F00BB
:1010E0008A11031397238A151A3003178D000030D5
:1010F0008F008A11031397238A151F3003178D0061
:1011000000308F008A11031397238A150130B20033
:10111000B3008A1103238A152D3003178D00003088
:101120008F008A11031341238A150130B200023067
:10113000B3008A1103238A15353003178D00003060
:101140008F008A11031341238A153D3003178D0048
:1011500000308F008A11031397238A154D3003172F
:101160008D0000308F008A11031397238A155230A7
:1011700003178D0000308F008A11031397238A15FF
:101180000130B200B3008A1103238A1560300317BF
:101190008D0000308F008A11031341238A1501301E
:1011A000B2000230B3008A1103238A156830031796
:1011B0008D0000308F008A11031341238A158A1194
:1011C000EF238A157808A500703003178D000030D2
:1011D0008F00031011300313A8008A110A248A1506
:1011E00025080C1EF12899000A300C1EF5289900DC
:1011F0000D300C1EF92899002508613C03190329BC
:101200002508623C03190E290430A800FA30B20008
:101210008A115E228A15A80B0629A5282508613A9D
:1012200003191629033A0319132CA72E0C30B10009
:101230008A1115238A159F149F181C2983161E08CE
:101240008312A2001E08A3000130B200B3008A116D
:1012500003238A157B3003178D0000308F000310A5
:101260000C300313A8008A11632C8A1510308400F7
:101270002308A9002208A8008A11BC2C8A158330F3
:1012800003178D0000308F008A11031397238A15EE
:10129000903003178D0000308F00031010300313BF
:1012A000A8008A110A248A15103084002308A90096
:1012B0002208A8008A11212D8A150A300C1E5E29E9
:1012C00099000D300C1E62299900A308031D922974
:1012D0002208543C031C92290130B2000230B300B2
:1012E0008A1103238A159B3003178D0000308F006D
:1012F0008A11031341238A159E3003178D00003095
:101300008F008A11031397238A152112210883164F
:10131000870083120712A112210883168700831207
:101320008716F32BA308031D99292208543C0318A0
:10133000C629A308031DC6292208A93C031CC629E7
:101340000130B2000230B3008A1103238A15A9309C
:1013500003178D0000308F008A11031341238A1573
:10136000AD3003178D0000308F008A1103139723CF
:101370008A15211221088316870083120716A112ED
:1013800021088316870083128712F32BA308031DFD
:10139000CD292208A93C0318FA29A308031DFA291C
:1013A0002208FE3C031CFA290130B2000230B300CF
:1013B0008A1103238A15B93003178D0000308F007E
:1013C0008A11031341238A15BC3003178D000030A6
:1013D0008F008A11031397238A152112210883167F
:1013E000870083120712A112210883168700831237
:1013F0008716F32BA308031D012A2208FE3C0318BD
:10140000312A2308013C031C312A031D0B2A220820
:10141000533C031C312A0130B2000230B3008A1160
:1014200003238A15C73003178D0000308F008A11FF
:10143000031341238A15CA3003178D0000308F0033
:101440008A11031397238A15211221088316870016
:1014500083120716A11221088316870083128712B0
:10146000F32B2308003C03186C2AFF3A031D3C2A87
:101470002208533C03186C2A2308013C031C6C2AE5
:10148000031D462A2208A83C031C6C2A0130B20026
:101490000230B3008A1103238A15D53003178D005B
:1014A00000308F008A11031341238A15D8300317A7
:1014B0008D0000308F008A11031397238A152112A3
:1014C00021088316870083120712A11221088316B0
:1014D000870083128716F32B2308003C0318A72AE2
:1014E000FF3A031D772A2208A83C0318A72A2308DD
:1014F000013C031CA72A031D812A2208FD3C031C72
:10150000A72A0130B2000230B3008A1103238A15E2
:10151000E33003178D0000308F008A11031341233D
:101520008A15E63003178D0000308F008A110313EF
:1015300097238A1521122108831687008312071624
:10154000A11221088316870083128712F32B230828
:10155000003C0318E22AFF3A031DB22A2208FD3C90
:101560000318E22A2308023C031CE22A031DBC2ABA
:101570002208523C031CE22A0130B2000230B300C0
:101580008A1103238A15F13003178D0000308F0074
:101590008A11031341238A15F43003178D0000309C
:1015A0008F008A11031397238A15211221088316AD
:1015B000870083120712A112210883168700831265
:1015C0008716F32B2308013C03181D2BFF3A031D3C
:1015D000ED2A2208523C03181D2B2308023C031C51
:1015E0001D2B031DF72A2208A73C031C1D2B0130CD
:1015F000B2000230B3008A1103238A15FF300317AB
:101600008D0000308F008A11031341238A150330A7
:1016100003178D0001308F008A11031397238A1559
:10162000211221088316870083120716A1122108B0
:101630008316870083128712F32B2308013C0318BB
:10164000582BFF3A031D282B2208A73C0318582BC0
:101650002308023C031C582B031D322B2208FC3CA0
:10166000031C582B0130B2000230B3008A1103234F
:101670008A150F3003178D0001308F008A11031374
:1016800041238A15153003178D0001308F008A1110
:10169000031397238A1521122108831687008312CA
:1016A0000712A11221088316870083128716F32BD5
:1016B0002308013C0318932BFF3A031D632B2208D8
:1016C000FC3C0318932B2308033C031C932B031DA2
:1016D0006D2B2208513C031C932B0130B2000230C9
:1016E000B3008A1103238A15233003178D000130BC
:1016F0008F008A11031341238A15273003178D00A9
:1017000001308F008A11031397238A1521122108B3
:101710008316870083120716A112210883168700FB
:1017200083128712F32B2308023C0318CE2BFF3AB7
:10173000031D9E2B2208513C0318CE2B2308033C8B
:10174000031CCE2B031DA82B2208A63C031CCE2B6A
:101750000130B2000230B3008A1103238A153330FE
:1017600003178D0001308F008A11031341238A155E
:10177000383003178D0001308F008A11031397232F
:101780008A15211221088316870083120712A112DD
:1017900021088316870083128716F32B0130B200CD
:1017A0000230B3008A1103238A15453003178D00D8
:1017B00001308F008A11031341238A154A30031721
:1017C0008D0001308F008A11031397238A1521128F
:1017D00021088316870083120716A1122108831699
:1017E0008700831287120430A800FA30B2008A11F1
:1017F0005E228A15A80BF52B573003178D00013098
:101800008F008A11031397238A158A11EF238A15F3
:101810007808A6002608733C03190F2C1629260801
:10182000733C0319A72E0C30B1008A1115238A15B9
:101830000130B200B3008A1103238A156330031705
:101840008D0001308F008A11031341238A156B30FC
:1018500003178D0001308F008A11031397238A1517
:10186000793003178D0001308F008A1103139723FD
:101870008A158A11EF238A157808A4003030A40253
:101880002408003C03184A2C2408093C031C4A2C59
:10189000602C562C2408613C0319552C2408623C0A
:1018A0000319552C2408633C0319602C0430A8004C
:1018B000FA30B2008A115E228A15A80B582C302CFF
:1018C000843003178D0001308F0003101330031391
:1018D000A8008A110A248A1524080C1E6D2C990070
:1018E0000A300C1E712C99000D300C1E752C9900BD
:1018F000240BA02C0130B2000230B3008A11032364
:101900008A15903003178D0001308F008A11031360
:1019100041238A15933003178D0001308F008A11FF
:10192000031397238A152112210883168700831237
:101930000712A112210883168700831287166D2EC5
:101940002408023C031DCA2C0130B2000230B3004F
:101950008A1103238A159E3003178D0001308F00F2
:101960008A11031341238A15A23003178D00013019
:101970008F008A11031397238A15211221088316D9
:10198000870083120716A11221088316870083128D
:1019900087126D2E2408033C031DF42C0130B20085
:1019A0000230B3008A1103238A15AE3003178D006D
:1019B00001308F008A11031341238A15B1300317B8
:1019C0008D0001308F008A11031397238A1521128D
:1019D00021088316870083120712A112210883169B
:1019E0008700831287166D2E2408043C031D1E2DCC
:1019F0000130B2000230B3008A1103238A15BC30D3
:101A000003178D0001308F008A11031341238A15BB
:101A1000BF3003178D0001308F008A110313972305
:101A20008A15211221088316870083120716A11236
:101A3000210883168700831287126D2E2408053C27
:101A4000031D482D0130B2000230B3008A11032378
:101A50008A15CA3003178D0001308F008A110313D5
:101A600041238A15CD3003178D0001308F008A1174
:101A7000031397238A1521122108831687008312E6
:101A80000712A112210883168700831287166D2E74
:101A90002408063C031D722D0130B2000230B30051
:101AA0008A1103238A15D83003178D0001308F0067
:101AB0008A11031341238A15DB3003178D0001308F
:101AC0008F008A11031397238A1521122108831688
:101AD000870083120716A11221088316870083123C
:101AE00087126D2E2408073C031D9C2D0130B20087
:101AF0000230B3008A1103238A15E63003178D00E4
:101B000001308F008A11031341238A15E93003172E
:101B10008D0001308F008A11031397238A1521123B
:101B200021088316870083120712A1122108831649
:101B30008700831287166D2E2408083C031DC62DCE
:101B40000130B2000230B3008A1103238A15F43049
:101B500003178D0001308F008A11031341238A156A
:101B6000F83003178D0001308F008A11031397237B
:101B70008A15211221088316870083120716A112E5
:101B8000210883168700831287126D2E2408093CD2
:101B9000031DF02D0130B2000230B3008A1103237F
:101BA0008A15043003178D0002308F008A11031349
:101BB00041238A150A3003178D0002308F008A11E5
:101BC000031397238A152112210883168700831295
:101BD0000712A112210883168700831287166D2E23
:101BE0002408613C031D1A2E0130B2000230B300FC
:101BF0008A1103238A15183003178D0002308F00D5
:101C00008A11031341238A151C3003178D000230FB
:101C10008F008A11031397238A1521122108831636
:101C2000870083120716A1122108831687008312EA
:101C300087126D2E2408623C031D442E0130B20031
:101C40000230B3008A1103238A15283003178D0050
:101C500002308F008A11031341238A152D30031798
:101C60008D0002308F008A11031397238A152112E9
:101C700021088316870083120712A11221088316F8
:101C80008700831287166D2E2408633C031D6D2E7A
:101C90000130B2000230B3008A1103238A153A30B2
:101CA00003178D0002308F008A11031341238A1518
:101CB0003F3003178D0002308F008A1103139723E2
:101CC0008A15211221088316870083120716A11294
:101CD000210883168700831287120230A800FA3089
:101CE000B2008A115E228A15A80B6F2E4C300317A2
:101CF0008D0002308F008A11031397238A158A11F1
:101D0000EF238A157808A7002708733C03198B2E48
:101D100027086E3C0319A22E211221088316870082
:101D200083120712A11221088316870083128712DB
:101D30000430A800FA30B2008A115E228A15A80B7E
:101D40009A2E602C27086E3C0319A72E132C4F28BF
:021D500063002E
:04400E00A42CFF3FA0
:00000001FF
;PIC16F887
;CRC=27E6  CREATED="09-Nov-23 01:47"
