:1000000003308A007A2B00000C29E530E43C2E17DF
:100010002E050000D232F037F3370001D632EC1E45
:1000200025173233A0122500C432F2326334610046
:10003000D632EC1E25173233A0122500493DF13A85
:10004000E93272326100D632EC1E25173233A0122B
:1000500025003A3084008313000803193D2801303D
:10006000F800F701F70B3228F80B31284A30F70077
:10007000F70B38283B28800B2F280800410EF03959
:10008000F7000F300805770488000000081448289E
:10009000081008000808F700080E0F39F8000800DB
:1000A0008316081088100811831288100F308316E9
:1000B0000805F038880083120815000008140000B5
:1000C0004A207808C10008100000081400004A20E7
:1000D0007808C00008100F308316080588008312C6
:1000E000410EF700F030F70577084004F800780873
:1000F000C000C01B56283E1C88103E188814000003
:100100000811000008103F0EC0000F30C005400865
:10011000C1003E203F080F39C000C1003E2008004A
:100120002830AD000C30AE000130AF000630B0001A
:100130000810881008110F30831608058800081071
:10014000881008110F308312BA0029200130AC004A
:100150002C08033C031CB4280330C1003E200530AA
:10016000BA002920AC0AA8280230C1003E20053080
:10017000BA002920AC012C08033C031CCB282D30ED
:100180002C07840083130008B100BE013108BF00B2
:100190005020AC0ABB288A110A12AD2B3B0BD12888
:1001A000D4284030BC00D528BC0101303A02BC073D
:1001B0003C088038BD00BE013D08BF00502008004B
:1001C0003908073A0319EE280B3A0319F328063ABF
:1001D0000319FB28023A0319012906290130BA0044
:1001E000BB00CE200B29BE010130BF0050200230E1
:1001F000BA0029200B290130BA000230BB00CE2002
:100200000B29BE011030BF0050200B290130BE0069
:100210003908BF00502008000B08AC008B13831670
:1002200003178C170C140000000083120313AC1B7F
:100230008B1703170C087F39031960290313AC00CF
:1002400003170D080313AD0003170F080313AE00C7
:100250002C08B900E0202D0803178D0003132E0889
:1002600003178F0003130B08AF008B1383160317BC
:100270008C170C140000000083120313AF1B8B17A4
:1002800003170C0D0E0D7F39031960290313AC0001
:1002900003170D080313AD0003170F080313AE0077
:1002A0002C08B900E0202D0803178D0003132E0839
:1002B00003178F008D0A03198F0A03130C290317E4
:1002C000031308000B08AD008B13831603178C175C
:1002D0000C140000000083120313AD1B8B170318CE
:1002E000992903170C087F390313AD0003170D0874
:1002F0000313AE0003170F080313AF002D08B90056
:10030000E0202E0803178D0003132F0803178F001A
:1003100003130B08B0008B13831603178C170C14F0
:100320000000000083120313B01B8B17AC0B99293C
:10033000B82903170C0D0E0D7F390313AD000317F9
:100340000D080313AE0003170F080313AF002D08A9
:10035000B900E0202E0803178D0003132F080317A0
:100360008F008D0A03198F0A03100313AC0B622947
:10037000080039080319292AC1003D080319292A50
:10038000C1070318CA297F30C102031C292A031997
:10039000292ACE298130C1070318292A4108F700EC
:1003A000F801F901FA013A08C500C5173B08C40075
:1003B0003C08C3001830C100C201431CF7294008A3
:1003C000FA07031CE929F90A031DE929F80A0319A8
:1003D000C2173F08F907031CF029F80A0319C217CE
:1003E0003E08BB00BB173B08F8070318C217C20D35
:1003F000F80CF90CFA0CC50CC40CC30C0310C10B9F
:10040000DC290130F7070318292AF81B0E2AC50D2D
:10041000FA0DF90DF80DF7030319292AC51F1F2A34
:10042000FA0A031D1F2AF90A031D1F2AF80A031DD1
:100430001F2AF80CF90CFA0CF70A0319292A3A08B2
:10044000C2003E08C206C21F272AF8172D2AF81339
:100450002D2AF701F801F901FA0108008318332A5F
:10046000413084008313F701F801F901FA01C10159
:10047000C201C301C40140083F043E043D04031906
:10048000712A2030C5000310B90DBA0DBB0DBC0D8B
:10049000C10DC20DC30DC40D40084402031D5A2AEC
:1004A0003F084302031D5A2A3E084202031D5A2AEE
:1004B0003D084102031C6B2A3D08C1023E08031C93
:1004C0003E0FC2023F08031C3F0FC3024008031C3B
:1004D000400FC4020314F70DF80DF90DFA0DC50B0A
:1004E000432A41088000840A42088000840A4308A5
:1004F0008000840A4408800008000408B100300825
:10050000B30003199C2A2F08BC002E08BB002D083D
:10051000BA002C08B900C001BF012030BE008230F3
:10052000BD00B9217A08AF007908AE007808AD00A7
:100530007708AC00B30B832A2F08BC002E08BB0041
:100540002D08BA002C08B9003908B63CB900FA01E8
:100550003A08BD00BA170310BA0CBB0CBC0CFA0C5D
:10056000F90CF80CF70CB90BAB2ABD1FC22AF7091E
:10057000F809F909FA09F70A0319F80A0319F90A37
:100580000319FA0A7A08AF007908AE007808AD00BE
:100590007708AC00AF1FD92AB103B116AC09AD0979
:1005A000AE09AF09AC0A0319AD0A0319AE0A031963
:1005B000AF0A3B30B8009A30B700CA30B600B50178
:1005C0000A30B30030080319B10A83142C308400B8
:1005D00083132F08BC002E08BB002D08BA002C087E
:1005E000B9003808C0003708BF003608BE0035081B
:1005F000BD002E227808F708031D112B300A3302A4
:100600000319112B31080319132B0F393302031966
:100610000B2B0318432BB11B432B311B132B203007
:100620003F2B2030B105B11E212BB1123008031D24
:10063000B1037708B1002D30B900E0203108F70090
:10064000B10130083302031D2F2B7708B1002E3083
:10065000B900E0203108F7002030B105003030301B
:10066000B11E3F2BB1123008031DB1037708B10052
:100670002D30B900E0203108F700B1013030F70724
:100680007708B900E02083103808BC003708BB00A9
:100690003608BA003508B900C001BF01BE010A30F2
:1006A000BD002E227A08B8007908B7007808B60095
:1006B0007708B500B30BE52A08008E30F7002D0847
:1006C000F8002C08F900FA01F808031D712B7908CD
:1006D000F800F9010830F702F808031D712BF70143
:1006E000792B0310F81B782BF90DF80DF703712BFC
:1006F000F813080003081F398300613083168F0048
:100700000F08FF308312A000831603170908C039B1
:10071000890003131F129F120030031788008312F1
:100720008701880189018313031320112008831690
:100730008700831207110C30970083169B019C01E0
:1007400001309D000030F800063883129200FF301F
:1007500083169200831295019028831603170908C7
:10076000C039890003131F129F120130031788003C
:10077000831203131F179F1783169F1383121F14CF
:10078000043003178D0000308F0003130C21083054
:10079000AC00FA30BA002920AC0BC92B0030F800AD
:1007A0001F08C33978049F000A30BA0029209F141B
:1007B0009F18D82B1E08AB000C30B900E0202B0886
:1007C0007F3C031D1A2C20122008831687008312F9
:1007D0000712A01220088316870083128712950142
:1007E0000130BA00BB00CE200A3003178D00003064
:1007F0008F0003130C210130BA000230BB00CE2061
:100800000E3003178D0000308F00031004300313E7
:10081000AC00622189308400AF01AE01AD01AC01B2
:100820000230B0007D222030B900E0202530B90030
:10083000E020DB2C2B087F3C03187D2C20122008A5
:100840008316870083120716A012200883168700DC
:100850008312871280302B02F7000310770DA1005E
:1008600021089500AD012108AC005D232630BC00B5
:100870009330BB004930BA007D30B9007A08C0001F
:100880007908BF007808BE007708BD00B9217A0852
:10089000A5007908A4007808A3007708A200013019
:1008A000BA00BB00CE20143003178D0000308F003B
:1008B00003130C210130BA000230BB00CE201830E7
:1008C00003178D0000308F00031004300313AC00B9
:1008D0006221893084002508AF002408AE00230877
:1008E000AD002208AC000230B0007D222030B900FB
:1008F000E0202530B900E020DB2C201220088316F0
:10090000870083120712A012200883168700831223
:1009100087162B087F3CF7000310770DA6002608EA
:100920009500AD012608AC005D23C930BC00C8307D
:10093000BB004830BA007D30B9007A08C0007908A1
:10094000BF007808BE007708BD00B9217A08AA0068
:100950007908A9007808A8007708A7000130BA0034
:10096000BB00CE201E3003178D0000308F00031314
:100970000C210130BA000230BB00CE202330031717
:100980008D0000308F00031004300313AC0062218F
:10099000893084002A08AF002908AE002808AD007D
:1009A0002708AC000230B0007D222030B900E020E2
:1009B0002530B900E0206430BA002920CE2B630036
:04400E00A42CFF3FA0
:00000001FF
;PIC16F887
;CRC=8214  CREATED="10-Oct-23 23:42"
