:1000000001308A00FC2900000C29E530E43C2E1761
:100010002E050000D232F037F3370001D632EC1E45
:100020003000C432F23263346100D632EC1EA53A9D
:100030000000493DF13AE93272326100D632EC1EDD
:10004000A53A0000283084008313000803193628DD
:100050000130F800F701F70B2B28F80B2A284A305B
:10006000F700F70B31283428800B282808002F0EC2
:10007000F039F7000F3008057704880000000814F5
:100080004128081008000808F700080E0F39F8008A
:1000900008008316081088100811831288100F308A
:1000A00083160805F038880083120815000008142C
:1000B000000043207808AF0008100000081400007A
:1000C00043207808AE0008100F308316080588001A
:1000D00083122F0EF700F030F70577082E04F80092
:1000E0007808AE00AE1B4F282C1C88102C188814E2
:1000F00000000811000008102D0EAE000F30AE05F4
:100100002E08AF0037202D080F39AE00AF00372082
:1001100008002830A3000C30A4000130A5000630F0
:10012000A6000810881008110F30831608058800F3
:100130000810881008110F308312A8002220013007
:10014000A2002208033C031CAD280330AF00372077
:100150000530A8002220A20AA1280230AF003720D3
:100160000530A8002220A2012208033C031CC42859
:1001700023302207840083130008A700AC0127085E
:10018000AD004920A20AB4288A110A122F2A290B8D
:10019000CA28CD284030AA00CE28AA010130280262
:1001A000AA072A088038AB00AC012B08AD00492013
:1001B00008002708073A0319E7280B3A0319EC2827
:1001C000063A0319F428023A0319FA28FF280130E5
:1001D000A800A900C7200429AC010130AD004920C6
:1001E0000230A800222004290130A8000230A90012
:1001F000C7200429AC011030AD004920042901308A
:10020000AC002708AD00492008000B08A2008B13A2
:10021000831603178C170C140000000083120313BD
:10022000A21B8B1703170C087F39031959290313D5
:10023000A20003170D080313A30003170F080313ED
:10024000A4002208A700D920230803178D00031358
:10025000240803178F0003130B08A5008B138316C4
:1002600003178C170C140000000083120313A51B46
:100270008B1703170C0D0E0D7F3903195929031322
:10028000A20003170D080313A30003170F0803139D
:10029000A4002208A700D920230803178D00031308
:1002A000240803178F008D0A03198F0A03130529E9
:1002B0000317031308000B08A4008B1383160317FE
:1002C0008C170C140000000083120313A41B8B175F
:1002D0000318922903170C087F390313A40003178E
:1002E0000D080313A50003170F080313A600240825
:1002F000A700D920250803178D000313260803172C
:100300008F0003130B08A7008B13831603178C179A
:100310000C140000000083120313A71B8B17A30B00
:100320009229B12903170C0D0E0D7F390313A40078
:1003300003170D080313A50003170F080313A600E6
:100340002408A700D920250803178D0003132608C9
:1003500003178F008D0A03198F0A03100313A30BD1
:100360005B2908002608F80125020318BA29250888
:10037000F700C629F7010830A700A50DF70D2608DC
:1003800077020318F700F80DA70BBD2908007808BD
:100390002308A5006430A600B2217708A3007808DE
:1003A0003030031DDA29A41CE129A419E129241AFB
:1003B0002030DD29A41124122414F8077808A7009E
:1003C000D9202308A5000A30A600B2217708A3008F
:1003D00078083030031DF229A419F629241CF629C7
:1003E000241A2030F8077808A700D9203030A30756
:1003F0002308A700D920080003081F3983006130B3
:1004000083168F000F08FF308312A0008316031796
:100410000908C039890003131F129F120030031707
:100420008800831287018801890183130313201137
:10043000200883168700831207110C30970083165B
:100440009B019C0101309D000030F80006388312AA
:100450009200FF308316920083129501892883163B
:1004600003170908C039890003131F129F120130B6
:1004700003178800831203131F179F1783169F13F8
:1004800083121F14043003178D0000308F000313F4
:1004900005210830A200FA30A8002220A20B4B2A26
:1004A000201020088316870083120714A01020084C
:1004B00083168700831287100030F8001F08C339A5
:1004C00078049F000A30A80022209F149F18662AF3
:1004D0001E08A1000C30A700D92021087F3C031D75
:1004E000962A201220088316870083120712A01272
:1004F0002008831687008312871295010130A80017
:10050000A900C7200A3003178D0000308F000313A5
:1005100005210130A8000230A900C7200E300317C2
:100520008D0000308F00031305210F2B21087F3C25
:100530000318D72A20122008831687008312071673
:10054000A012200883168700831287127F302102B1
:10055000F7000310F70D7708FF3EA2009500013069
:10056000A800A900C720113003178D0000308F00AC
:10057000031305210130A8000230A900C7207F30F5
:100580002102F7000310F70D7708FF3EA200153097
:1005900003178D0000308F00031004300313A300F5
:1005A0005B212208A3001B30A400C7210F2B2012BF
:1005B00020088316870083120712A01220088316D2
:1005C00087008312871621087F3CF7000310770D00
:1005D000A20095000130A800A900C7201930031718
:1005E0008D0000308F00031305210130A800023078
:1005F000A900C72021087F3CF7000310770DA20057
:100600001E3003178D0000308F00031004300313D9
:10061000A3005B212208A3001B30A400C721643083
:08062000A80022205C2A6300FF
:04400E00A42CFF3FA0
:00000001FF
;PIC16F887
;CRC=5A7E  CREATED="29-Sep-23 00:44"
