:1000000002308A00F32A00000A108A100A118207BF
:1000100028340C3401340634D6376C3A6135651D0A
:10002000A0122E1A662B00004137E73AEC373A103F
:1000300025173233A53100003930840083130008BE
:1000400003192F280230F800F701F70B2528F80BC9
:1000500024289730F700F70B2B28800B2228080064
:10006000400EF039F7000F300805770488000000D3
:1000700008143A283B28081008008810F03083162E
:100080008800831208150000081400000808080EF4
:100090000F39C0000810000008144E280808080E88
:1000A0000F39BF0008100030831688008312400EFD
:1000B000F700F030F70577083F04F8007808BF0034
:1000C000BF1B3E283D1C88103D18881400000811F5
:1000D000000008103E0EBF000F30BF053F08C000F3
:1000E00030203E080F39BF00C0003020080000302B
:1000F0008316880083128810081108100F30B90089
:100100001C200130AB002B08033C031C8F2803305C
:10011000C00030200530B9001C20AB0A8328023013
:10012000C0003020AB012B08033C031CA0282B0887
:100130000420AC00BD012C08BE003D20AB0A932872
:100140008A110A120B2B8E30F7002C08F8002B08AE
:10015000F900FA01F808031DB7287908F800F90139
:100160000830F702F808031DB728F701BF2803106D
:10017000F81BBE28F90DF80DF703B728F8138A11FC
:100180000A122C2B380803193229C0003C08031925
:100190003229C0070318D3287F30C002031C32293C
:1001A00003193229D7288130C007031832294008A3
:1001B000F700F801F901FA013908C400C4173A0838
:1001C000C3003B08C2001830C000C101421C002916
:1001D0003F08FA07031CF228F90A031DF228F80A5F
:1001E0000319C1173E08F907031CF928F80A031977
:1001F000C1173D08BA00BA173A08F8070318C11723
:10020000C10DF80CF90CFA0CC40CC30CC20C031091
:10021000C00BE5280130F70703183229F81B17290E
:10022000C40DFA0DF90DF80DF70303193229C41F97
:100230002829FA0A031D2829F90A031D2829F80A82
:10024000031D2829F80CF90CFA0CF70A03193229B6
:100250003908C1003D08C106C11F3029F8173629E9
:10026000F8133629F701F801F901FA0108003A0BF1
:100270003A293D294030BB003E29BB0101303902FB
:10028000BB073B088038BC00BD013C08BE003D20D8
:10029000080038080C3A03195429063A03195C2956
:1002A000023A031962296729BD010130BE003D20D1
:1002B0000230B9001C206C290130B9000230BA00AC
:1002C00037216C29BD011030BE003D206C29013062
:1002D000BD003808BE003D2008000B08AC008B13A1
:1002E000831603178C170C140000000083120313ED
:1002F000AC1B8B170318A42903170C087F390313B1
:10030000AC0003170D080313AD0003170F08031308
:10031000AE002C08B80049212D0803178D000313E7
:100320002E0803178F0003130B08AF008B138316DF
:1003300003178C170C140000000083120313AF1B6B
:100340008B17AB0BA429C32903170C0D0E0D7F3996
:100350000313AC0003170D080313AD0003170F08B8
:100360000313AE002C08B80049212D0803178D0097
:1003700003132E0803178F008D0A03198F0A031029
:100380000313AB0B6D2908008318C9294030840082
:100390008313F701F801F901FA01C001C101C2019B
:1003A000C3013F083E043D043C040319072A2030E2
:1003B000C4000310B80DB90DBA0DBB0DC00DC10DB1
:1003C000C20DC30D3F084302031DF0293E0842023F
:1003D000031DF0293D084102031DF0293C0840029D
:1003E000031C012A3C08C0023D08031C3D0FC1024A
:1003F0003E08031C3E0FC2023F08031C3F0FC3020E
:100400000314F70DF80DF90DFA0DC40BD9294008A6
:100410008000840A41088000840A42088000840A1F
:100420004308800008000408B0002F08B200031938
:10043000322A2E08BB002D08BA002C08B9002B0860
:10044000B800BF01BE012030BD008230BC00C22018
:100450007A08AE007908AD007808AC007708AB00E8
:10046000B20B192A2E08BB002D08BA002C08B900BF
:100470002B08B8003808B63CB800FA013908BC00AF
:10048000B9170310B90CBA0CBB0CFA0CF90CF80C28
:10049000F70CB80B412ABC1F582AF709F809F909CB
:1004A000FA09F70A0319F80A0319F90A0319FA0AEB
:1004B0007A08AE007908AD007808AC007708AB0088
:1004C000AE1F6F2AB003B016AB09AC09AD09AE0977
:1004D000AB0A0319AC0A0319AD0A0319AE0A3B3083
:1004E000B7009A30B600CA30B500B4010A30B20085
:1004F0002F080319B00A83142B30840083132E08AD
:10050000BB002D08BA002C08B9002B08B80037082A
:10051000BF003608BE003508BD003408BC00C42149
:100520007808F708031DA72A2F0A32020319A72A01
:1005300030080319A92A0F3932020319A12A031816
:10054000D92AB01BD92A301BA92A2030D52A20301D
:10055000B005B01EB72AB0122F08031DB0037708EC
:10056000B0002D30B80049213008F700B0012F0845
:100570003202031DC52A7708B0002E30B800492189
:100580003008F7002030B00500303030B01ED52ADA
:10059000B0122F08031DB0037708B0002D30B8004B
:1005A00049213008F700B0013030F7077708B8006C
:1005B000492183103708BB003608BA003508B90056
:1005C0003408B800BF01BE01BD010A30BC00C4211F
:1005D0007A08B7007908B6007808B5007708B40043
:1005E000B20B7B2A080003081F3983007130831681
:1005F0008F000F0803170908C039890003131F1261
:100600009F12003003178800831287018801890137
:10061000831303137728831603170908C039890049
:1006200003131F129F120130031788008312031354
:100630001F179F1783169F1783121F149F149F184D
:100640001F2B83161E088312A1001E08A200220879
:10065000AC002108AB00A3287A08BB007908BA00D7
:100660007808B9007708B8002130BF002330BE00F9
:100670002030BD007730BC00C2207A08A60079087F
:10068000A5007808A4007708A3002608BB00250869
:10069000BA002408B9002308B800BF01BE015830D1
:1006A000BD008430BC00C2207A08AA007908A900E5
:1006B0007808A8007708A7000C30B800492101305D
:1006C000B900BA0037210C3003178D0000308F00BD
:1006D000031009300313AB006D2189308400260814
:1006E000AE002508AD002408AC002308AB000430A0
:1006F000AF0013225630B80049210130B900023052
:10070000BA003721143003178D0000308F0003101A
:1007100008300313AB006D21893084002A08AE0035
:100720002908AD002808AC002708AB000230AF0054
:100730001322DF30B80049210230AB00FA30B90093
:0A0740001C20AB0B9E2B1E2B630048
:04400E00A42CFF3FA0
:00000001FF
;PIC16F887
;CRC=C145  CREATED="27-sep.-23 16:38"
