:1000000003308A006A2B00000C29E530E43C2E17EF
:100010002E050000D637EC1E25173233203B00009A
:1000200067396132BD122E19E612631000003930B3
:1000300084008313000803192B280130F800F7010E
:10004000F70B2028F80B1F284A30F700F70B26285B
:100050002928800B1D280800400EF039F7000F30CA
:1000600008057704880000000814362808100800E6
:100070000808F700080E0F39F8000800831608106A
:1000800088100811831288100F3083160805F03885
:100090008800831208150000081400003820780832
:1000A000C000081000000814000038207808BF00C5
:1000B00008100F308316080588008312400EF700E1
:1000C000F030F70577083F04F8007808BF00BF1B41
:1000D00044283D1C88103D188814000008110000B9
:1000E00008103E0EBF000F30BF053F08C0002C2097
:1000F0003E080F39BF00C0002C2008002830AC009B
:100100000C30AD000130AE000630AF000810881092
:1001100008110F3083160805880008108810081190
:100120000F308312B90017200130AB002B08033CBD
:10013000031CA2280330C0002C200530B900172072
:10014000AB0A96280230C0002C200530B9001720D9
:10015000AB012B08033C031CB9282C302B0784006F
:1001600083130008B000BD013008BE003E20AB0A7A
:10017000A9288A110A12822B3A0BBF28C2284030C4
:10018000BB00C328BB0101303902BB073B088038E4
:10019000BC00BD013C08BE003E2008003808073AFC
:1001A0000319DC280B3A0319E128063A0319E92858
:1001B000023A0319EF28F4280130B900BA00BC2034
:1001C000F928BD010130BE003E200230B9001720E1
:1001D000F9280130B9000230BA00BC20F928BD016D
:1001E0001030BE003E20F9280130BD003808BE00A6
:1001F0003E2008000B08AB008B13831603178C17E7
:100200000C140000000083120313AB1B8B170317A1
:100210000C087F3903194E290313AB0003170D088F
:100220000313AC0003170F080313AD002B08B8002D
:10023000CE202C0803178D0003132D0803178F0001
:1002400003130B08AE008B13831603178C170C14C3
:100250000000000083120313AE1B8B1703170C0D55
:100260000E0D7F3903194E290313AB0003170D0838
:100270000313AC0003170F080313AD002B08B800DD
:10028000CE202C0803178D0003132D0803178F00B1
:100290008D0A03198F0A0313FA28031703138A110F
:1002A0000A129C2B8E30F7002C08F8002B08F9005E
:1002B000FA01F808031D66297908F800F9010830E9
:1002C000F702F808031D6629F7016E290310F81BD1
:1002D0006D29F90DF80DF7036629F81308003808A1
:1002E0000319DF29C0003C080319DF29C0070318E0
:1002F00080297F30C002031CDF290319DF298429EC
:100300008130C0070318DF294008F700F801F90120
:10031000FA013908C400C4173A08C3003B08C200F8
:100320001830C000C101421CAD293F08FA07031C68
:100330009F29F90A031D9F29F80A0319C1173E08CE
:10034000F907031CA629F80A0319C1173D08BA00CA
:10035000BA173A08F8070318C117C10DF80CF90CC1
:10036000FA0CC40CC30CC20C0310C00B9229013050
:10037000F7070318DF29F81BC429C40DFA0DF90D7E
:10038000F80DF7030319DF29C41FD529FA0A031D45
:10039000D529F90A031DD529F80A031DD529F80C1A
:1003A000F90CFA0CF70A0319DF293908C1003D08D6
:1003B000C106C11FDD29F817E329F813E329F70166
:1003C000F801F901FA0108000B08AC008B13831641
:1003D00003178C170C140000000083120313AC1BCE
:1003E0008B1703181B2A03170C087F390313AC0063
:1003F00003170D080313AD0003170F080313AE0016
:100400002C08B800CE202D0803178D0003132E08EA
:1004100003178F0003130B08AF008B13831603170A
:100420008C170C140000000083120313AF1B8B17F2
:10043000AB0B1B2A3A2A03170C0D0E0D7F39031341
:10044000AC0003170D080313AD0003170F080313C7
:10045000AE002C08B800CE202D0803178D00031322
:100460002E0803178F008D0A03198F0A0310031338
:10047000AB0BE42908008318402A40308400831322
:10048000F701F801F901FA01C001C101C201C3017C
:100490003F083E043D043C0403197E2A2030C4007A
:1004A0000310B80DB90DBA0DBB0DC00DC10DC20DB5
:1004B000C30D3F084302031D672A3E084202031D85
:1004C000672A3D084102031D672A3C084002031CBD
:1004D000782A3C08C0023D08031C3D0FC1023E08BB
:1004E000031C3E0FC2023F08031C3F0FC30203144C
:1004F000F70DF80DF90DFA0DC40B502A40088000D5
:10050000840A41088000840A42088000840A430863
:10051000800008000408B0002F08B2000319A92ABF
:100520002E08BB002D08BA002C08B9002B08B80013
:10053000BF01BE012030BD008230BC006F217A08AF
:10054000AE007908AD007808AC007708AB00B20BBC
:10055000902A2E08BB002D08BA002C08B9002B08E1
:10056000B8003808B63CB800FA013908BC00B91721
:100570000310B90CBA0CBB0CFA0CF90CF80CF70C04
:10058000B80BB82ABC1FCF2AF709F809F909FA09EC
:10059000F70A0319F80A0319F90A0319FA0A7A087B
:1005A000AE007908AD007808AC007708AB00AE1F4C
:1005B000E62AB003B016AB09AC09AD09AE09AB0A27
:1005C0000319AC0A0319AD0A0319AE0A3B30B70090
:1005D0009A30B600CA30B500B4010A30B2002F0814
:1005E0000319B00A83142B30840083132E08BB0038
:1005F0002D08BA002C08B9002B08B8003708BF0036
:100600003608BE003508BD003408BC003B2278081F
:10061000F708031D1E2B2F0A320203191E2B300868
:100620000319202B0F3932020319182B0318502BF2
:10063000B01B502B301B202B20304C2B2030B00512
:10064000B01E2E2BB0122F08031DB0037708B00088
:100650002D30B800CE203008F700B0012F0832024C
:10066000031D3C2B7708B0002E30B800CE20300898
:10067000F7002030B00500303030B01E4C2BB012E7
:100680002F08031DB0037708B0002D30B800CE202E
:100690003008F700B0013030F7077708B800CE20F7
:1006A00083103708BB003608BA003508B900340893
:1006B000B800BF01BE01BD010A30BC003B227A0870
:1006C000B7007908B6007808B5007708B400B20B17
:1006D000F22A080003081F398300613083168F0057
:1006E0000F0803170908C039890003131F129F124E
:1006F0000030031788008312870188018901831362
:1007000003137E28831603170908C03989000313D1
:100710001F129F12013003178800831203131F1743
:100720009F1783169F1783121F14043003178D0021
:1007300000308F000313FA280830AB00FA30B900FC
:100740001720AB0B9E2B9F149F18A42B83161E08FB
:100750008312A1001E08A2002208AC002108AB00F1
:1007600052217A08BB007908BA007808B9007708E6
:10077000B8005230BF004930BE001D30BD00773098
:10078000BC006F217A08A6007908A5007808A400AB
:100790007708A3002208AC002108AB0052217A0898
:1007A000BB007908BA007808B9007708B800B830FB
:1007B000BF001E30BE000530BD007D30BC006F2183
:1007C0007A08AA007908A9007808A8007708A70085
:1007D0000C30B800CE200130B900BA00BC200A307D
:1007E00003178D0000308F00031004300313AB009B
:1007F000E421893084002608AE002508AD002408D5
:10080000AC002308AB000230AF008A222030B800D1
:10081000CE207630B800CE200130B9000230BA00C8
:10082000BC20103003178D0000308F0003100530FE
:100830000313AB00E421893084002A08AE002908A4
:10084000AD002808AC002708AB000230AF008A22B8
:10085000DF30B800CE202030B800CE200230AB0010
:0E086000FA30B9001720AB0B302CA32B63002D
:04400E00A42CFF3FA0
:00000001FF
;PIC16F887
;CRC=70F3  CREATED="29-Sep-23 00:51"
