:1000000004308A00282C00000C29E530E43C2E172F
:100010002E0500008C216F37F4326F10253320003D
:100020004536203B61366F39A035BD12750034303E
:1000300084008313000803192B280130F800F7010E
:10004000F70B2028F80B1F284A30F700F70B26285B
:100050002928800B1D2808003B1830280812312859
:100060000816831608128312BB18382888123928FC
:1000700088168316881283123B19402808134128DA
:100080000817831608138312BB19482888134928B8
:100090008817831688130000831209148316091029
:1000A0005128831209108316091083120800BC011D
:1000B0008316081600308312081A0130BC04831618
:1000C000881600308312881A0130F7000310F70DEC
:1000D0007708BC048316081700308312081B013010
:1000E000F700F70DF70DFC30F7057708BC04831611
:1000F000881700308312881B0130F700F70DF70DC9
:10010000F70DF830F7057708BC043C08F800080044
:10011000831609108910091183128910831689101A
:1001200008168816081788178312091583160911EF
:10013000000083120914831609100000831257204F
:100140007808BB00091083160910000083120914F7
:10015000831609100000831257207808BA0009108E
:1001600083160910081288120813881383123B0E95
:10017000F700F030F70577083A04F8007808BA007D
:10018000BA1FC42883169028B808031DC9288910EF
:10019000CA28891483168910000083120911831656
:1001A0000911000083120910831609108312390EF9
:1001B000BA000F30BA053A08BB002C2039080F39B5
:1001C000BA00BB002C2008002830A3000C30A4008B
:1001D0000130A5000630A60009108316091083120D
:1001E00089108316891083120911831609110812C8
:1001F0008812081388130910891009110F3083120F
:10020000B40017200130A2002208033C031C10296F
:100210000330BB002C200530B4001720A20A0429AB
:100220000230BB002C200530B4001720A2012208A8
:10023000033C031C27292330220784008313000872
:10024000A700B8012708B9008820A20A17298A1137
:100250000A12412C350B2D2930294030B6003129A6
:10026000B60101303402B60736088038B700B8014D
:100270003708B900882008003308073A03194A29CB
:100280000B3A03194F29063A03195729023A031961
:100290005D2962290130B400B5002A216729B8011F
:1002A0000130B90088200230B400172067290130DE
:1002B000B4000230B5002A216729B8011030B90016
:1002C000882067290130B8003308B9008820080069
:1002D0000B08A2008B13831603178C170C14000055
:1002E000000083120313A21B8B1703170C087F391E
:1002F0000319BC290313A20003170D080313A3005D
:1003000003170F080313A4002208B3003C2123089D
:1003100003178D000313240803178F0003130B0822
:10032000A5008B13831603178C170C140000000014
:1003300083120313A51B8B1703170C0D0E0D7F39AA
:100340000319BC290313A20003170D080313A3000C
:1003500003170F080313A4002208B3003C2123084D
:1003600003178D000313240803178F008D0A031948
:100370008F0A03136829031703138A110A12482CE2
:100380008E30F7002308F8002208F900FA01F80877
:10039000031DD4297908F800F9010830F702F8089C
:1003A000031DD429F701DC290310F81BDB29F90D03
:1003B000F80DF703D429F8138A110A12532C3308C5
:1003C00003194F2ABB00370803194F2ABB0703182C
:1003D000F0297F30BB02031C4F2A03194F2AF4294E
:1003E0008130BB0703184F2A3B08F700F801F901D9
:1003F000FA013408BF00BF173508BE003608BD003B
:100400001830BB00BC013D1C1D2A3A08FA07031C2A
:100410000F2AF90A031D0F2AF80A0319BC17390815
:10042000F907031C162AF80A0319BC173808B50087
:10043000B5173508F8070318BC17BC0DF80CF90CF4
:10044000FA0CBF0CBE0CBD0C0310BB0B022A013012
:10045000F70703184F2AF81B342ABF0DFA0DF90DC0
:10046000F80DF70303194F2ABF1F452AFA0A031D87
:10047000452AF90A031D452AF80A031D452AF80CE6
:10048000F90CFA0CF70A03194F2A3408BC00380893
:10049000BC06BC1F4D2AF817532AF813532AF7013C
:1004A000F801F901FA0108000B08A7008B13831665
:1004B00003178C170C140000000083120313A71BF2
:1004C0008B1703188B2A03170C087F390313A70017
:1004D00003170D080313A80003170F080313A9003F
:1004E0002708B3003C21280803178D0003132908AF
:1004F00003178F0003130B08AA008B13831603172F
:100500008C170C140000000083120313AA1B8B1716
:10051000A60B8B2AAA2A03170C0D0E0D7F39031385
:10052000A70003170D080313A80003170F080313F0
:10053000A9002708B3003C21280803178D000313E6
:10054000290803178F008D0A03198F0A031003135C
:10055000A60B542A08008318B02A3B30840083136A
:10056000F701F801F901FA01BB01BC01BD01BE01AF
:100570003A083904380437040319EE2A2030BF0042
:100580000310B30DB40DB50DB60DBB0DBC0DBD0DF7
:10059000BE0D3A083E02031DD72A39083D02031D4D
:1005A000D72A38083C02031DD72A37083B02031C10
:1005B000E82A3708BB023808031C380FBC02390888
:1005C000031C390FBD023A08031C3A0FBE02031484
:1005D000F70DF80DF90DFA0DBF0BC02A3B0880008E
:1005E000840A3C088000840A3D088000840A3E0892
:1005F000800008000408AB002A08AD000319192B7D
:100600002908B6002808B5002708B4002608B3005A
:10061000BA01B9012030B8008230B700DF217A0872
:10062000A9007908A8007808A7007708A600AD0BF4
:10063000002B2908B6002808B5002708B4002608B2
:10064000B3003308B63CB300FA013408B700B4175E
:100650000310B40CB50CB60CFA0CF90CF80CF70C32
:10066000B30B282BB71F3F2BF709F809F909FA0933
:10067000F70A0319F80A0319F90A0319FA0A7A089A
:10068000A9007908A8007808A7007708A600A91F84
:10069000562BAB03AB16A609A709A809A909A60AF8
:1006A0000319A70A0319A80A0319A90A3B30B200C3
:1006B0009A30B100CA30B000AF010A30AD002A084C
:1006C0000319AB0A83142630840083132908B6006B
:1006D0002808B5002708B4002608B3003208BA007D
:1006E0003108B9003008B8002F08B700AB227808ED
:1006F000F708031D8E2B2A0A2D0203198E2B2B08B7
:100700000319902B0F392D020319882B0318C02BC6
:10071000AB1BC02B2B1B902B2030BC2B2030AB05F0
:10072000AB1E9E2BAB122A08031DAB037708AB0050
:100730002D30B3003C212B08F700AB012A082D0215
:10074000031DAC2B7708AB002E30B3003C212B08E7
:10075000F7002030AB0500303030AB1EBC2BAB12A5
:100760002A08031DAB037708AB002D30B3003C21F2
:100770002B08F700AB013030F7077708B3003C21B6
:1007800083103208B6003108B5003008B4002F08D5
:10079000B300BA01B901B8010A30B700AB227A0838
:1007A000B2007908B1007808B0007708AF00AD0B4F
:1007B000622B8A110A12822C2608F80125020318DE
:1007C000E42B2508F700F02BF7010830A700A50D52
:1007D000F70D260877020318F700F80DA70BE72B93
:1007E000080078082308A5006430A600DC237708F9
:1007F000A30078083030031D042CA41C0B2CA41972
:100800000B2C241A2030072CA41124122414F807CE
:100810007808B3003C212308A5000A30A600DC2399
:100820007708A30078083030031D1C2CA419202C55
:10083000241C202C241A2030F8077808B3003C210F
:100840003030A3072308B3003C218A110A129C2CE4
:1008500003081F398300613083168F000F080317C8
:100860000908C039890003131F129F1200300317B3
:100870008800831287018801890183130313A10172
:10088000E428043003178D0000308F00031368291B
:100890000430A200FA30B4001720A20B4A2CA301A6
:1008A0002108A200C0293330B600B5005330B4008F
:1008B0008030B3007A08BA007908B9007808B80027
:1008C0007708B700DF217A08A5007908A400780826
:1008D000A3007708A2000A3003178D0000308F00B4
:1008E000031008300313A600542289308400250821
:1008F000A9002408A8002308A7002208A6000230A7
:10090000AA00FA2A2030B3003C210130B4000230A2
:10091000B5002A212108A10AA200103003178D007A
:1009200000308F0003100B300313A600542222085E
:10093000A3001B30A400F12B0230A200FA30B40057
:0A0940001720A20B9E2C4F2C630021
:04400E00A42CFF3FA0
:00000001FF
;PIC16F887
;CRC=0B43  CREATED="27-Sep-23 11:06"
