:1000000000308A00E72800002A30840083130008AB
:10001000031918280130F800F701F70B0D28F80B29
:100020000C284A30F700F70B13281628800B0A28F3
:1000300008002E0EF039F7000F300805770488000D
:10004000000008142328081008000808F700080E0C
:100050000F39F80008008316081088100811831261
:1000600088100F3083160805F038880083120815B1
:1000700000000814000025207808AE0008100000D9
:100080000814000025207808AD0008100F308316F2
:100090000805880083122E0EF700F030F705770868
:1000A0002D04F8007808AD00AD1B31282B1C8810FA
:1000B0002B18881400000811000008102C0EAD0049
:1000C0000F30AD052D08AE0019202C080F39AD00FA
:1000D000AE00192008002830A6000C30A70001301F
:1000E000A8000630A9000810881008110F308316E8
:1000F000080588000810881008110F308312AA0024
:1001000004200130A5002508033C031C8F28033080
:10011000AE0019200530AA000420A50A8328023069
:10012000AE0019200530AA000420A5012508033CD3
:10013000031CA62826302507840083130008AA0084
:10014000AB012A08AC002B20A50A96288A110A12B6
:10015000FF28270BAC28AF284030A800B028A80102
:1001600001302602A80728088038A900AB01290819
:10017000AC002B2008002508073A0319C9280B3AC0
:100180000319CE28063A0319D628023A0319DC28A7
:10019000E1280130A600A700A920E628AB01013024
:1001A000AC002B200230AA000420E6280130A60073
:1001B0000230A700A920E628AB011030AC002B20AC
:1001C000E6280130AB002508AC002B20080003080E
:1001D0001F398300613083168F000F080317090849
:1001E000C039890003131F129F12003003178800C3
:1001F0008312870188018901831303136B28103050
:10020000A1000230A200A301A40123082102031CC3
:100210006D2924082202031C6D290130A40001303D
:10022000220724020319162903186A290130A300A2
:1002300001302107230203191F2903186829230805
:10024000A6002408A700A9206630A500BB204830DE
:10025000A500BB202108230203183B2901302307F6
:10026000A500A6002408A700A9206630A500BB2091
:100270004F30A500BB2001302102230203184D2975
:1002800002302307A500A6002408A700A920663095
:10029000A500BB204C30A500BB2002302102230268
:1002A00003185F2903302307A500A6002408A70030
:1002B000A9206630A500BB204130A500BB200C3032
:1002C000A500FA30AA000420A50B6129A30A182969
:0C02D000A40A0F29A301A4010529630062
:04400E00A42CFF3FA0
:00000001FF
;PIC16F887
;CRC=0364  CREATED="13-Sep-23 21:00"
