:1000000003308A00DA2B00000C29E530E43C2E177F
:100010002E0500004122C31E25267500D630EC3780
:100020007210E4326C10412243103D1025267505F4
:100030000D00453765396F00C539A0326C10ED32BF
:100040007310E432A022CE22D22720050D00C63242
:10005000623965396F00C539A0326C10ED3273100A
:10006000E43220234521D222D22720050D00CD30B5
:10007000723D6F00C539A0326C10ED327310E4325E
:10008000A0264129DA2720050D004131F2346C0009
:10009000C539A0326C10ED327310E432A020422931
:1000A000492620050D00CD30F9370001C539A032B1
:1000B0006C10ED327310E432A026C12C4F108A066A
:1000C0000001CA3AEE346F00C539A0326C10ED322F
:1000D0007310E43220255527C92720050D00CA3AA0
:1000E000EC346F00C539A0326C10ED327310E4327D
:1000F00020255526C92720050D00C133EF39F437D7
:100100000001C539A0326C10ED327310E432A0202A
:10011000C727532A4F108A060001D332703AE932BA
:100120006D31F2320001C539A0326C10ED3273101E
:10013000E432A0294528D424C526422945108A0640
:100140000001CF31F43A62396500C539A0326C1034
:10015000ED327310E432A027432A5521D222200524
:100160000D00CE37F634E53662396500C539A03268
:100170006C10ED327310E43220274F2BC9224D2131
:10018000D22220050D00C434E334E536623965001F
:10019000C539A0326C10ED327310E4322022C9212F
:1001A000C9224D21D22220050D002D308400831359
:1001B00000080319E9280130F800F701F70BDE28E1
:1001C000F80BDD284A30F700F70BE428E728800B0E
:1001D000DB280800340EF039F7000F3008057704EB
:1001E000880000000814F428081008000808F70028
:1001F000080E0F39F800080083160810881008113F
:10020000831288100F3083160805F0388800831297
:100210000815000008140000F6207808B400081043
:10022000000008140000F6207808B30008100F3012
:100230008316080588008312340EF700F030F705A6
:1002400077083304F8007808B300B31B0229311C87
:100250008810311888140000081100000810320EB0
:10026000B3000F30B3053308B400EA2032080F3969
:10027000B300B400EA2008002830A4000C30A50028
:100280000130A6000630A7000810881008110F30B2
:100290008316080588000810881008110F30831293
:1002A000AD00D5200130A3002308033C031C6029C6
:1002B0000330B400EA200530AD00D520A30A54294C
:1002C0000230B400EA200530AD00D520A301230898
:1002D000033C031C77292430230784008313000880
:1002E000A800B1012808B200FC20A30A67298A11DE
:1002F0000A12002C2E0B7D2980294030AF00812965
:10030000AF0101302D02AF072F088038B000B101D6
:100310003008B200FC2008002C08073A03199A297B
:100320000B3A03199F29063A0319A729023A031920
:10033000AD29B2290130AD00AE007A21B729B10153
:100340000130B200FC200230AD00D520B7290130C9
:10035000AD000230AE007A21B729B1011030B200F1
:10036000FC20B7290130B1002C08B200FC200800A5
:100370000B08A3008B13831603178C170C140000B3
:10038000000083120313A31B8B1703170C087F397C
:1003900003190C2A0313A30003170D080313A40069
:1003A00003170F080313A5002308AC008C212408B1
:1003B00003178D000313250803178F0003130B0881
:1003C000A6008B13831603178C170C140000000073
:1003D00083120313A61B8B1703170C0D0E0D7F3909
:1003E00003190C2A0313A30003170D080313A40019
:1003F00003170F080313A5002308AC008C21240861
:1004000003178D000313250803178F008D0A0319A6
:100410008F0A0313B8290317031308000B08A4005D
:100420008B13831603178C170C1400000000831223
:100430000313A41B8B170318452A03170C087F39D5
:100440000313A40003170D080313A50003170F08D7
:100450000313A6002408AC008C21250803178D0087
:100460000313260803178F0003130B08A7008B1331
:10047000831603178C170C1400000000831203135B
:10048000A71B8B17A30B452A642A03170C0D0E0D0F
:100490007F390313A40003170D080313A5000317E6
:1004A0000F080313A6002408AC008C2125080317AD
:1004B0008D000313260803178F008D0A03198F0A76
:1004C00003100313A30B0E2A8A110A12442CAB014A
:1004D0000408AA002B10831B2B14240EF038A6004E
:1004E000A607E23EA700323EA90024080F39A7075D
:1004F000A707A907E93EA800A807A807230E0F39F8
:10050000A807A907A80DA90DA909A90D23080F3946
:10051000A907A60D0730A5000A30A907A803031CE8
:100520008D2AA807A703031C912AA707A603031C6B
:10053000952AA607A503031C992A25308400831356
:1005400007302A052A1384072930040203192A17C1
:100550000008F700031DB42A2A1BB42A2A1AC62A47
:10056000AA19B42A2030B72AAA152A123030F70760
:10057000A4010408A3002410831B24147708AC00F2
:100580008C2123088400831324188317840A2A1FCC
:10059000A42A8A110A124B2C0B08A4008B13831671
:1005A00003178C170C140000000083120313A41B04
:1005B0008B170318042B03170C087F390313A400AF
:1005C00003170D080313A50003170F080313A60054
:1005D00024080C1EE92A9900250803178D0003132F
:1005E000260803178F0003130B08A7008B1383162D
:1005F00003178C170C140000000083120313A71BB1
:100600008B17A30B042B242B03170C0D0E0D7F3916
:100610000313A40003170D080313A50003170F0805
:100620000313A60024080C1E132B9900250803179A
:100630008D000313260803178F008D0A03198F0AF4
:1006400003100313A30BCC2A8A110A12552CAB01F9
:100650000408AA002B10831B2B14240EF038A600CC
:10066000A607E23EA700323EA90024080F39A707DB
:10067000A707A907E93EA800A807A807230E0F3976
:10068000A807A907A80DA90DA909A90D23080F39C5
:10069000A907A60D0730A5000A30A907A803031C67
:1006A0004D2BA807A703031C512BA707A603031C68
:1006B000552BA607A503031C592B25308400831353
:1006C00007302A052A1384072930040203192A1740
:1006D0000008F700031D742B2A1B742B2A1A7C2B8D
:1006E000AA19742B2030772BAA152A123030F7075D
:1006F00077080C1E792B9900840A2A1F642B8A1113
:100700000A125C2C0B08A3008B13831603178C179B
:100710000C140000000083120313A31B8B17031794
:100720000C087F390319D82B0313A30003170D08F6
:100730000313A40003170F080313A50023080C1EBE
:100740009F2B9900240803178D0003132508031716
:100750008F0003130B08A6008B13831603178C1747
:100760000C140000000083120313A61B8B17031741
:100770000C0D0E0D7F390319D82B0313A30003179B
:100780000D080313A40003170F080313A500230883
:100790000C1EC82B9900240803178D00031325088D
:1007A00003178F008D0A03198F0A0313822B031777
:1007B0000313080003081F398300613083168F007C
:1007C0000F088312A0018316031787111930031332
:1007D0009900A63098009030831298008316031772
:1007E0000908C039890003131F129F120030031734
:1007F00088008312870188018901831303133C2930
:10080000831603170908C039890003131F129F12AA
:10081000013003178800831203131F179F178316D5
:100820009F1783121F14043003178D0000308F00B0
:100830000313B8210830A300FA30AD00D520A30B74
:100840001C2C0030F8001F08C33978049F000A30C0
:10085000AD00D5209F149F182B2C83161E088312E1
:10086000A1001E08A2000C30AC008C210130AD00AC
:10087000AE007A210A3003178D0000308F0003107C
:1008800004300313A3000E2A103084002208A400B1
:100890002108A300672A0E3003178D0000308F0057
:1008A000031010300313A300CC2A10308400220858
:1008B000A4002108A300272B0A300C1E5D2C9900F0
:1008C0000D300C1E612C9900A208031D7F2C2108FD
:1008D000543C031C7F2C0130AD000230AE007A2165
:1008E000193003178D0000308F000313B8211C301E
:1008F00003178D0000308F00031382231A2EA208E5
:10090000031D862C2108543C0318A12CA208031DAA
:10091000A12C2108A93C031CA12C0130AD00023000
:10092000AE007A21273003178D0000308F000313AB
:10093000B8212B3003178D0000308F000313822362
:100940001A2EA208031DA82C2108A93C0318C32CA9
:10095000A208031DC32C2108FE3C031CC32C01303C
:10096000AD000230AE007A21373003178D00003021
:100970008F000313B8213A3003178D0000308F0029
:10098000031382231A2EA208031DCA2C2108FE3C41
:100990000318E82C2208013C031CE82C031DD42C6E
:1009A0002108533C031CE82C0130AD000230AE009E
:1009B0007A21453003178D0000308F000313B821D2
:1009C000483003178D0000308F00031382231A2E46
:1009D0002208003C0318112DFF3A031DF32C2108B7
:1009E000533C0318112D2208013C031C112D031D3B
:1009F000FD2C2108A83C031C112D0130AD00023054
:100A0000AE007A21533003178D0000308F0003139E
:100A1000B821563003178D0000308F000313822356
:100A20001A2E2208003C03183A2DFF3A031D1C2DF4
:100A30002108A83C03183A2D2208013C031C3A2D3A
:100A4000031D262D2108FD3C031C3A2D0130AD006D
:100A50000230AE007A21613003178D0000308F0024
:100A60000313B821643003178D0000308F00031387
:100A700082231A2E2208003C0318632DFF3A031D1F
:100A8000452D2108FD3C0318632D2208023C031C60
:100A9000632D031D4F2D2108523C031C632D013093
:100AA000AD000230AE007A216F3003178D000030A8
:100AB0008F000313B821723003178D0000308F00B0
:100AC000031382231A2E2208013C03188C2DFF3AAF
:100AD000031D6E2D2108523C03188C2D2208023C68
:100AE000031C8C2D031D782D2108A73C031C8C2D85
:100AF0000130AD000230AE007A217D3003178D0049
:100B000000308F000313B821813003178D000030AF
:100B10008F00031382231A2E2208013C0318B52DDF
:100B2000FF3A031D972D2108A73C0318B52D220875
:100B3000023C031CB52D031DA12D2108FC3C031C08
:100B4000B52D0130AD000230AE007A218D30031793
:100B50008D0000308F000313B821933003178D00F0
:100B600000308F00031382231A2E2208013C031841
:100B7000DE2DFF3A031DC02D2108FC3C0318DE2D9D
:100B80002208033C031CDE2D031DCA2D2108513C05
:100B9000031CDE2D0130AD000230AE007A21A13001
:100BA00003178D0000308F000313B821A530031701
:100BB0008D0000308F00031382231A2E2208023C7E
:100BC0000318072EFF3A031DE92D2108513C031895
:100BD000072E2208033C031C072E031DF32D2108BA
:100BE000A63C031C072E0130AD000230AE007A2176
:100BF000B13003178D0000308F000313B821B630D9
:100C000003178D0000308F00031382231A2E01304A
:100C1000AD000230AE007A21C33003178D000030E2
:100C20008F000313B821C83003178D0000308F00E8
:0E0C3000031382236430AD00D520212C630015
:04400E00A42CFF3FA0
:00000001FF
;PIC16F887
;CRC=2FEC  CREATED="25-Oct-23 16:52"
